:020000040800F2
:10000000E87E002085020008F5200008ED200008A9
:10001000F120000811080008412800080000000035
:100020000000000000000000000000003124000873
:100030004F080008000000000121000855240008B6
:100040009F0200089F0200089F0200089F0200080C
:100050009F0200089F0200089F0200089F020008FC
:100060006F0800089F0200089F0200089F02000816
:10007000130800081F0800082B0800089F0200084A
:1000800037080008000000009F0200089F020008D7
:100090009F0200089F0200089F0200089F020008BC
:1000A0009F0200089F0200089F0200089F020008AC
:1000B0009F020008952400089F0200089F02000884
:1000C0009F0200089F0200089F0200089F0200088C
:1000D0009F0200089F0200089F0200089F0200087C
:1000E000510800089F0200089F0200089F020008B4
:1000F0009F0200089F0200089F0200080000000005
:10010000000000009F020008000000009F0200089D
:100110009F02000800000000A12400089F020008C0
:10012000430800089F0200089F0200089F02000881
:100130009F02000800000000000000009F0200086D
:100140009F0200089F02000800000000000000005D
:10015000000000000000000000000000000000009F
:100160000000000000000000000000009F020008E6
:100170009F020008000000000000000000000000D6
:10018000000000009F0200080000000000000000C6
:10019000000000000000000000000000000000005F
:1001A00000000000000000009F0200089F020008FD
:1001B0009F0200089F0200089F0200080000000044
:1001C000000000009F020008000000000000000086
:1001D0009F0200089F02000800F002F800F042F8B9
:1001E0000AA090E8000C82448344AAF10107DA4592
:1001F00001D100F037F8AFF2090EBAE80F0013F0A2
:10020000010F18BFFB1A43F001031847E8820000F2
:1002100008830000103A24BF78C878C1FAD8520782
:1002200024BF30C830C144BF04680C607047000070
:100230000023002400250026103A28BF78C1FBD8EF
:10024000520728BF30C148BF0B6070471FB507F089
:10025000C3F99DE8030000F0ABF800F0C7FA1FBD3A
:1002600010B510BD00F038F91146FFF7EFFF05F0AB
:100270007FFE00F056F903B4FFF7F2FF03BC00F075
:10028000FFF800000948804709480047FEE7FEE7FD
:10029000FEE7FEE7FEE7FEE7FEE7FEE7FEE7FEE736
:1002A00004480549054A064B7047000083240008AE
:1002B000D9010008E8720020E87E0020E87C0020D8
:1002C000E87C002070B5064600F056F8056806F197
:1002D0000B0020F00704B4429CBF002070BD2B46E9
:1002E0006A68BAB11068A04210D304F108018842CC
:1002F0003CBF5068586007D35168101941601168BD
:10030000091B016058601460101D70BD13465268CF
:10031000002AE7D12146284600F036F80028DED131
:1003200070BD70B50446051F00F026F80068002C6B
:1003300014BF446870BD002C18BFAC423CBF2046BF
:100340006468F8D301680A18AA4218BF456003D14F
:100350002A6805461144016028684119A1421CBF62
:100360006C6070BD6168696021680844286070BD78
:100370007047704770470000004870472000002019
:10038000704770477047704738B504460A460020EA
:100390006946AFF30080002808BF38BD02460099C7
:1003A000204600F077F8012038BD012000F08CB81D
:1003B000F8B5AFF30080054600200C46102000BFC2
:1003C0000646A819A0420DD9324669460020AFF36F
:1003D0000080070008BF00F077F80098A04218BF1F
:1003E0000546C419FFF7C8FF05600746F01D20F059
:1003F00007004619284600F00AF8B44208BFF8BDC5
:10040000A21B31463868BDE8F84000F043B800212F
:100410000160C0E9011070471020704710B5203A04
:10042000C0F00B80B1E81850A0E81850B1E818509F
:10043000A0E81850203ABFF4F5AF5FEA027C24BF71
:10044000B1E81850A0E8185044BF18C918C0BDE85A
:1004500010405FEA827C24BF51F8043B40F8043B23
:1004600008BF7047D20728BF31F8023B48BF11F8D8
:10047000012B28BF20F8023B48BF00F8012B704732
:1004800001491820ABBEFEE7260002000048704775
:1004900018000020034640688C46002818BF884298
:1004A0003CBF03464068F8D318681844884207D018
:1004B0000CF1030020F00700001D411A521A0146FA
:1004C000081D0A60FFF72DBF10B500F039F8BDE830
:1004D000104000F02FB870477546FFF7D7FFAE46C3
:1004E00005006946534620F00700854618B020B540
:1004F000FFF7D6FEBDE820404FF000064FF00007A2
:100500004FF000084FF0000BAC46ACE8C009ACE877
:10051000C009ACE8C009ACE8C00921F007018D466C
:10052000704710B50446AFF300802046BDE8104088
:10053000FFF7A1BE002801D0FFF7A2BF704700005F
:1005400010B5012805D0002103A000F021F80120FA
:1005500010BD09A1F8E7000053494752544D454DDD
:100560003A204F7574206F662068656170206D6554
:100570006D6F7279000000003A2048656170206D4F
:10058000656D6F727920636F727275707465640047
:1005900070B505460C460A2000E06D1C00F011F80D
:1005A00035B128780028F8D102E0641C00F009F881
:1005B00014B120780028F8D1BDE870400A20AFF3CC
:1005C000008008B569468DF800000320ABBE08BD69
:1005D00053EA020C00F069802DE9F04B4FF0000661
:1005E000002B1FBFB3FA83F503FA05F424FA05F6CE
:1005F0005E4012BF1643B2FA82F502FA05F4C5F165
:1006000020051EBF22FA05FC44EA0C04203556EAF8
:10061000044C4FEA144418BF641C4FF000084FF01C
:100620000009904271EB030C39D3002919BFB1FACC
:1006300081F701FA07F6B0FA80F700FA07F6C7F17A
:1006400020071EBF20FA07FC46EA0C062037B6FB3F
:10065000F4FCA7EB0507103F07F01F0BCBF12006BA
:100660002CFA06F60CFA0BFB44BFB3460026202FEB
:10067000A4BF5E464FF0000B5BEA060C08BF4FF0CC
:10068000010B19EB0B0948EB0608ABFB027C06FBE0
:1006900002CC0BFB03CCC01B71EB0C01C1E70B467A
:1006A000024641464846BDE8F08B13B5084318BFE3
:1006B0004FF0FF300146AFF30080BDE81C407047AB
:1006C000032A40F2308010F0030C00F0158011F87E
:1006D000013BBCF1020F624498BF11F801CB00F856
:1006E000013B38BF11F8013BA2F1040298BF00F8AA
:1006F00001CB38BF00F8013B11F003033FF48EAE8D
:10070000083AC0F0088051F8043B083A51F804CB8D
:10071000A0E80810F5E7121D5CBF51F8043B40F853
:10072000043BAFF30080D20724BF11F8013B11F85E
:1007300001CB48BF11F8012B24BF00F8013B00F8A2
:1007400001CB48BF00F8012B704702F0FF0343EADA
:10075000032242EA024200F024B84FF000020429CA
:10076000C0F0128010F0030C00F01B80CCF1040CE0
:10077000BCF1020F18BF00F8012BA8BF20F8022B14
:10078000A1EB0C0100F00DB85FEAC17C24BF00F8BA
:10079000012B00F8012B48BF00F8012B70474FF0E8
:1007A000000200B5134694469646203922BFA0E8C1
:1007B0000C50A0E80C50B1F12001BFF4F7AF0907CD
:1007C00028BFA0E80C5048BF0CC05DF804EB8900BE
:1007D00028BF40F8042B08BF704748BF20F8022B01
:1007E00011F0804F18BF00F8012B704770B5064C10
:1007F0007C44064D7D4404E020460168084480475F
:10080000241DAC42F8D170BD207D0000287D000081
:10081000FEE746F29460C2F2000000F02BB846F208
:10082000F460C2F2000000F025B846F25470C2F243
:10083000000000F01FB846F61400C2F2000000F0FD
:1008400019B846F2B470C2F2000000F013B8704755
:1008500080B54FF4806000F067F94FF4804000F0FD
:1008600063F94FF40040BDE8804000F05DB904201A
:1008700000F05AB9B0B5D0E910C30268DCF8001036
:1008800003F01F030424D2F800E09C400C4218BF80
:100890001EF0040521D102249C400C4218BF1EF01A
:1008A000020527D1D940090723D51EF0080108BF4A
:1008B000B0BD116821F00E011160012101FA03F2AF
:1008C000CCF80420C16380F82510416B002280F829
:1008D000242071B1BDE8B04008471168890603D4EF
:1008E000116821F004011160CCF80440016B00296B
:1008F000F0D1B0BD1168890606D4116821F00A0153
:100900001160012180F82510CCF80440C16A002252
:10091000002980F82420DDD1EBE7000000284FF00B
:10092000010100F08C802DE9F04740F2000CC4F288
:10093000020C03684FF6F8320CF5816ECBF6FD72AF
:10094000734538BF02F580624CF6CD441A44CCF6AC
:10095000CC44A2FB042803F0FC02A2F10802A2FB93
:1009600004290CF580656FF00304D0E90262D0F829
:1009700010A03CBF0025C4F2020504EA9804C0E9B7
:100980001054022580F825501D6847F6F07725EAB7
:1009900007073A43476942EA0A0285693A43C76949
:1009A0002A43056A3A432A4332431A600CF502622D
:1009B000734538BF0CF50062A3180CF50862C264D9
:1009C000C9F3041240F6840C01FA02F2B6F5804F26
:1009D000C4F2020C8364026505D1002141601960F4
:1009E000CCF800201CE041685FFA81FE0139032940
:1009F0004FF00001C3F800E0CCF8002010D8AEF1B1
:100A000001020CEB820747F87C1F02F01F01012254
:100A100002FA01F30CF1BC023946CCF8C03001E017
:100A20000022002300F1540C8CE80E00002101226A
:100A3000C16380F8252080F82410BDE8F0470846FF
:100A4000704700002DE9F04190F824C0BCF1010F7F
:100A500043D04FF0010C80F824C090F825C0BCF1C1
:100A6000010F37D14FF0020C80F825C04FF0000C79
:100A7000C0F83CC0D0F800C000F14C0E9EE83040F9
:100A8000DCF80060BEF1000F26F00106CCF8006033
:100A900065601CBFD0E916456560D0E91076012578
:100AA00006F01F068468B540D0F830807D60CCF831
:100AB00004300B46102C04BF13460A46CCF808300D
:100AC000CCF80C20DCF80010B8F1000F08D041F091
:100AD0000E010DE0002180F824100220BDE8F08115
:100AE00021F00401CCF80010DCF8001041F00A01FC
:100AF000CCF80010806C0168C90303D5016841F48B
:100B000080710160BEF1000F05D0DEF8000040F4F6
:100B10008070CEF80000DCF8000040F00100CCF856
:100B200000000020BDE8F081B0B540F21441C4F2ED
:100B300001010A68024208BFB0BD40F2E01508603A
:100B4000C2F20005002040F20401C2F200010122BD
:100B5000A8602846C5E9001204F0A6FCD5E90242C7
:100B60002B6804EB440403EB8403D5E904109B6871
:100B70009847A869D0E90021106804F0B1FAE86943
:100B80000068006890F83D1001293DD1022180F8ED
:100B90003D10006842F6FF32C168C4F20102904283
:100BA00041F00101C1600FDCB0F1804F1ED040F276
:100BB0000041C4F20001884218D040F60001C4F29E
:100BC0000001884212D01BE042F60041C4F201014C
:100BD00088420BD044F20001C4F20101884205D0E2
:100BE00043F20041C4F20101884209D18168072221
:100BF000C0F201021140062906D0B1F5803F03D0B2
:100C0000016841F001010160E9690868496800680C
:100C1000BDE8B04004F064BA2DE9F04F82B00C6832
:100C2000002C00F0C88041F2004500F13847C4F6BE
:100C3000000506224FEAB726A84208BF0522052E66
:100C400038BF4FEAB722012700254FF0000E0126DA
:100C500000920AE00C680EF1040E34FA06F206F176
:100C6000010605F1020500F0A680A6F1010907FAC8
:100C700009FB14EA0B08EDD0D1F804C003230CF0F3
:100C80000304621EAB40012A6FEA030A10D882688F
:100C9000CB6802EA0A02AB401A4382604268CCF396
:100CA000001322EA0B0203FA09F31A43426003E03D
:100CB000032C01D103241FE0C2688B6802EA0A02F8
:100CC000AB401A43022CC26016D16FF0030202EA55
:100CD000590202440EF01C040F23D2F820C003FA7C
:100CE00004FB0B692CEA0B0CA34043EA0C031362D0
:100CF000D1F804C00CF00304026804FA05F302EA18
:100D00000A021A431CF4403F0260A3D041F2600380
:100D1000C4F202031A684FF6084A42F001021A6050
:100D20001A68CFF6FF7A02F001020192019A29F0C7
:100D3000030240F20049C4F201094A4452F80AC0D1
:100D40000EF00C040F23009FA3402CEA030307FAC4
:100D500004F4234342F80A30D9F808C04B684CEA3F
:100D60000804DA0258BF2CEA080440F20C4CC9F817
:100D70000840C4F2010CDCF800209F0242EA08049B
:100D800058BF22EA0804CCF80040D9F804209C039C
:100D900042EA080758BF22EA0807C9F80470D9F8E0
:100DA0000020DB0342EA080758BF22EA0807C9F817
:100DB000007001274EE702B0BDE8F08FB0B582B0F9
:100DC00041F20801C4F202010A6D48F2E04342F028
:100DD00010020A650A6DC0F6000302F010020192CB
:100DE000019A0A680A680A680A6842F20002C4F2B4
:100DF0000202126840F20002C2F2000212680968A0
:100E00000546C1F30221595C4FF0FF3001F01F018C
:100E100022FA01F14DF68362C4F21B32A1FB0212E9
:100E200000EB924146F6885041F20002C2F2000007
:100E3000C4F2000240F2E7330024C0E90021C0E917
:100E40000243046100F0A0FB08B1012034E046F643
:100E50008850C2F2000000F059FC68BB4EF204104A
:100E6000CEF200004FF4800101600F2D4FF0010021
:100E700022D84EF60C51CEF2000109680023C1F3CE
:100E8000022181F00702042A28BF0422033938BF57
:100E900019464FF0FF3303FA02F2D24302FA01F18E
:100EA0004EF236420901CEF20002117046F6087188
:100EB000C2F200010870002002B0B0BDF0B581B0F0
:100EC000036841F288021903C4F2020256D44FF0BB
:100ED000000ED90700F0BB801168476821F00301BC
:100EE00039431160990740F1B5801168876821F096
:100EF0000C0139431160590740F1AF801168C76890
:100F000021F0300139431160190740F1A9801168BF
:100F1000076921F0C00139431160990640F1A380AF
:100F20001168476921F4406139431160590640F165
:100F30009D801168876921F4405139431160190679
:100F400040F197801168C76921F44041394311602D
:100F5000D90540F191801168076A21F44031394385
:100F60001160990540F18B801168476A21F4402196
:100F700039431160590540F1938082E052F8301CEA
:100F800011F0805C0BD152F8301C41F0805142F8D6
:100F9000301C52F8301C01F080510091009947F24A
:100FA0000004C4F20004216841F48071216046F617
:100FB0000471C2F200010E682568ED051BD40D68AE
:100FC000AD1B022D14D82568ED0514D40D68AD1B9A
:100FD000022D0DD82568ED050DD40D68AD1B022D31
:100FE00006D82568ED0506D40D68AD1B022DE3D9A2
:100FF0004FF0030E1CE09668076C16F4407610D094
:10100000BE420BD09668956826F4407645F480354C
:101010009560956825F4803595609660F60740F0F8
:10102000978091684FF0000E21F440713943916030
:10103000BCF1000F08D152F8301C21F0805142F869
:10104000301CD90703D047E7D9077FF445AF99078C
:101050003FF54BAF59073FF551AF19073FF557AF74
:1010600099063FF55DAF59063FF563AF19063FF5A9
:1010700069AFD9053FF56FAF99053FF575AF5905D4
:101080000ED51168876A21F440113943B7F5801FE6
:10109000116005D152F87C1C41F4801142F87C1C8F
:1010A00019050ED51168C76A21F440013943B7F517
:1010B000800F116005D152F87C1C41F4801142F878
:1010C0007C1CD9040ED51168076B21F0407139439F
:1010D000B7F1807F116005D152F87C1C41F480117A
:1010E00042F87C1C99040ED51168476B21F04061D1
:1010F0003943B7F1006F116005D152F87C1C41F4FF
:10110000801142F87C1C59040ED51168876B21F0C0
:1011100040613943B7F1006F116005D152F87C1C72
:1011200041F4801142F87C1C19040ED51168C06B83
:1011300021F040510143B0F1805F116005D152F8B8
:101140007C0C40F4803042F87C0C704601B0F0BD5D
:101150000D6841F288364FF0030E9468A4073FF5FE
:1011600060AF0C68641BB4423FF642AF9468A407BA
:101170003FF557AF0C68641BB4423FF639AF946833
:10118000A4073FF54EAF0C68641BB4423FF630AF86
:101190009468A4073FF545AF0C68641BB442DCD9E2
:1011A00046E70000002804BF012070472DE9F04FFA
:1011B00087B00446406A20B10020206104F1140089
:1011C00005E06068B0F5827F03D004F11C000021C7
:1011D00001600027A76294F85D00002840F0D180EC
:1011E000206843F60041C4F20001884284F85C7034
:1011F000CDE90577CDE9037702973CD043F60001AE
:10120000C4F20001884240F0BC8041F24C00C4F2BC
:101210000200C168002641F48041C160C16801F448
:10122000804101910199016841F00201016000686B
:1012300002A900F00200019001984FF430400290A2
:1012400002200390032005900520069040F2004004
:10125000C4F600000496FFF7DFFC46F294651C20FC
:10126000C2F20005C4F2020080230D21102285E89D
:1012700047002B617CE041F24C00C4F20200C168DF
:1012800002AD41F40041C160C1684FF0020901F4B0
:101290000041019101990168002641F001010160BE
:1012A00001684FF0030A01F0010101910199016801
:1012B0004FF0060B41F004010160016801F00401E8
:1012C00001910199016841F002010160006829461D
:1012D00000F00200019001984FF4004002904FF09E
:1012E0009040CDF80C900496CDF814A0CDF818B02D
:1012F000FFF792FC4FF4406040F20048CDE902094C
:1013000004A8C4F6000880E8400C08F5806029466F
:10131000FFF782FC2020CDE9020904A880E8400CF8
:1013200040462946FFF778FC40F21C08C4F2020848
:1013300046F2F46508F11400C2F200050E214FF0E8
:10134000800985E843002846C5E90369C5E90566C3
:10135000C5E90766FFF7E2FAA565AC6246F2547587
:1013600008F12800C2F200050F21102285E847028B
:1013700028466E61AE61EE612E62FFF7CFFA6565B9
:10138000AC62022084F85D002068E1680268B1F573
:10139000E06F22F04002026041F4006298BF012732
:1013A000B2F5706F1CBF0023A3623A03D4E9013782
:1013B000D4E9046503F4827307F404473B4406F060
:1013C0000207A6693B4405F00107E5693B4406F4C2
:1013D00000773B4405F03807256A3B4405F0800759
:1013E000A56A3B4405F400573B4303600423676A46
:1013F00001F4706103EA1643666B114307F01007AE
:10140000194306F00806394331434160C16921F4AC
:101410000061C16100200121206684F85D1007B0E1
:10142000BDE8F08FF0B590F83C20012A04BF0220FF
:10143000F0BDD1E90232D1E900CE22F47C5223F48E
:1014400070531A4348F2FF73CFF6F07303EA0E03AA
:1014500042EA030E0A692CF477234EEA030C22F4C5
:1014600076224B6942EA0C021A430B6B22F4742C6D
:1014700023F470238A6943EA0C0343EA02430268B7
:1014800043F2004EC4F2010E42F6004C7245C4F223
:10149000010C01D0624503D1CC6923F08053234372
:1014A000724501D0624517D101F12006002770CEA8
:1014B000CFF6F04723F07C7307EA0656334324F057
:1014C00000742343724543EA050301D0624503D10A
:1014D000C96A23F000530B430021536480F83C1089
:1014E0000846F0BD70B590F83C20012A4FF002028A
:1014F00047D080F83D20026843F2004C546893685E
:10150000C4F2010C42F6004E6245C4F2010E01D055
:10151000724503D14D6824F470042C434FF68F7547
:10152000CFF6FF550E682C4042F6FF35C4F2010598
:101530003443AA4254600FDCB2F1804F16D040F21F
:101540000046C4F20006B24210D040F60006C4F2D3
:101550000006B2420AD00EE0724507D044F20006FF
:10156000C4F20106B24201D0624504D1896823F079
:101570008003194391600121002280F83D1080F81A
:101580003C20104670BD0000002804BF01207047B9
:1015900070B582B0044690F83D0010B3022084F884
:1015A0003D002068211D00F081FF012084F84800E3
:1015B00084F83E0084F83F0084F8400084F841003D
:1015C00084F8420084F8430084F8440084F845001D
:1015D00084F8460084F8470084F83D00002002B0FB
:1015E00070BD206843F6FF72C4F2010200219042F0
:1015F00084F83C103CDCB0F1804F51D040F2004107
:10160000C4F200018842C9D141F25800C4F202007C
:1016100001684FF0FF3241F002010160006800F004
:101620000200019001984EF60C50CEF200000068C6
:10163000C0F3022080F00701042928BF04210338E9
:1016400002FA01F14FF0050238BF002022EA010141
:1016500001FA00F04EF21D410001CEF200010870C7
:101660004EF20010CEF200004FF00051016095E7FD
:1016700044F20001C4F20101884238D044F600016E
:10168000C4F20101884289D141F26000C4F2020033
:10169000016841F480210160006800F4802031E09D
:1016A00041F25800C4F20200016846F2B47541F0FC
:1016B000010101600168A0F5456001F0010101919F
:1016C0000199C2F200053921102200234FF0800C4D
:1016D0004FF4007E4FF4806685E80F502846C5E938
:1016E00006632B62FFF71AF9A562AC6256E741F276
:1016F0006000C4F20200016841F4803101600068BA
:1017000000F480300190019848E7000090F83D1007
:1017100001291CBF01207047022180F83D1001689B
:1017200042F6FF32C868C4F20102914240F0010063
:10173000C8600FDCB1F1804F1ED040F20040C4F20F
:101740000000814218D040F60000C4F2000081423F
:1017500012D01EE042F60040C4F2010081420BD0DC
:1017600044F20000C4F20100814205D043F200407F
:10177000C4F2010081420CD188680722C0F2010244
:101780000240062A4FF0000008D0B2F5803F08BFA3
:101790007047086840F001000860002070470000B2
:1017A00080B590F83C20012A4FF0020200F0A5809D
:1017B00080F83D20D0F800C08822DCF80830CFF651
:1017C000CE721A40CCF808200B686F2B0FDD1F2259
:1017D000C0F21002934235DCB3F5005F44DA702B9F
:1017E00000F08D80B3F5805F00F08080CFE02F2B7C
:1017F00034DD4F2B3DDC302B6CD0402B40F0C780CC
:10180000D1F804E0C968DCF82030DCF8202022F0B0
:101810000102CCF82020DCF8182022F0F00242EA85
:10182000011123F00A0242EA0E02CCF81810CCF89B
:101830002020DCF808104FF68872CFF6CF721140E6
:10184000473151E03F21C0F210018B4238DC2021AA
:10185000C0F210018B423DD0302137E0D3B3102BC2
:1018600038D0202B36D092E05CD0B3F1101F31D0AD
:101870008DE0502B69D0602B40F08980D1F804E0D6
:10188000C968DCF8203023F01003CCF82030DCF8F5
:101890001830DCF8202023F4704322F0A00243EA41
:1018A000013142EA0E12CCF81810CCF82020DCF8F6
:1018B00008104FF68872CFF6CF721140673113E0EF
:1018C0004021C0F210018B4204D07021C0F21001FF
:1018D0008B425CD1DCF808104FF68872CFF6CF72DD
:1018E0001140194341F00701CCF8081000220121F2
:1018F00080F83D10002180F83C10104680BDD1E9F1
:1019000001E3C968DCF8082043EA0E0322F47F42B1
:1019100043EA01211143CCF80810DCF8081041F02B
:101920007701E1E7D1E901E3C968DCF8082043EA7F
:101930000E0322F47F4243EA01211143CCF8081040
:10194000DCF8081041F48041CEE7D1F804E0C96822
:10195000DCF82030DCF8202022F00102CCF8202036
:10196000DCF8182022F0F00242EA011123F00A020A
:1019700042EA0E02CCF81810CCF82020DCF808104F
:101980004FF68872CFF6CF7211405731ACE7012283
:10199000ADE70000B0B5044600680169890744BF9F
:1019A000C1685FEA817164D40169490744BFC168B5
:1019B0005FEA417169D40169090744BFC1685FEA00
:1019C00001716FD40169C90644BFC1685FEAC16192
:1019D00074D40169C9071CBFC1685FEAC1717AD1BB
:1019E0000169090641BFC1685FEA01616FF08001CA
:1019F00001610169C90541BFC1685FEA01616FF416
:101A0000807101610169490641BFC1685FEA4161B6
:101A10006FF0400101610169890641BFC1685FEA59
:101A200081616FF0200101610169C90241BFC16894
:101A30005FEAC1216FF4801101610169890241BF30
:101A4000C1685FEA81216FF40011016101694902F7
:101A500041BFC1685FEA41216FF480010161016902
:101A6000090241BFC1685FEA01216FF40001016111
:101A7000B0BD6FF00201016101212177806980070B
:101A800047D02068002121778EE76FF004010161C3
:101A900002212177806910F4407F51D02068002115
:101AA000217788E76FF00801016104212177C0697F
:101AB00080075CD020680021217783E76FF0100158
:101AC000016108212177C06910F4407F67D0206848
:101AD000002121777DE76FF001010161206841F26B
:101AE0000001C4F20001884272D046F63C55C2F2B1
:101AF0000005AC427FF474AF40F20011C2F2000165
:101B0000496800293FF46CAFD1E90020904728686C
:101B100066E746F6F040C2F20000844261D046F625
:101B20003C50C2F200008442ABD140F27810C2F2C5
:101B3000000080680028A4D0D0E900108847A0E702
:101B400046F6F040C2F20000844253D046F63C50C4
:101B5000C2F200008442A1D140F27810C2F200002B
:101B6000806800289AD0D0E90010884796E746F6AA
:101B7000F040C2F20000844245D046F63C50C2F22A
:101B80000000844296D140F27810C2F200008068D2
:101B900000283FF48FAFD0E9001088478AE746F667
:101BA000F040C2F20000844236D046F63C50C2F209
:101BB000000084427FF48BAF40F27810C2F2000044
:101BC000806800283FF483AFD0E9001088477EE7A3
:101BD00046F60470C2F20000026801320260084654
:101BE000FEE640F20810C2F20000006E012105F08E
:101BF000F1F946E740F20810C2F20000006E012140
:101C000005F0E8F94AE740F20810C2F20000006E61
:101C1000012105F0DFF94DE740F20810C2F20000A3
:101C2000006E012105F0D6F951E780B586B044F683
:101C30000002C4F2010200219042019117D044F247
:101C40000001C4F20101884221D0B0F1804F3CD1A3
:101C500041F24C00C4F20200016841F0020101604F
:101C6000006800F002000090009808201EE041F299
:101C70004C00C4F20200016841F0020101600068FA
:101C800000F00200009000984FF400700EE041F266
:101C90004C00C4F20200016841F0020101600068DA
:101CA00000F00200009000984FF480400190022064
:101CB00002900020CDE903000120059040F2004091
:101CC000C4F6000001A9FEF7A7FF06B080BD000022
:101CD0002DE9F04190F83C30012B04BF0220BDE813
:101CE000F0814FEAB202052A00F28681DFE812F0A5
:101CF00006004F00A200F5004801860103681A6A39
:101D0000A3F1804622F001021A621D6A1A465C683D
:101D100052F818CF8F68A6F59636D1F800E025F076
:101D200002054FEAB626072E45EA07050AD801271D
:101D3000B74017F0E50F1FBFCF6825F00C0527F05F
:101D400004073D43072E0BD8012707FA06F616F0C5
:101D5000E50F1FBF24F44074D1E9056734433C43C9
:101D60004FF68C76CFF6FE760CEA060747EA0E07AA
:101D70005C609F614F6809695F631D629F6947F0FE
:101D800008079F619F6927F004079F6173E103685B
:101D900043F200461A6AC4F2010622F010021A62E7
:101DA0001D6A1A46D3F804C052F8188FB3428E68E1
:101DB000D1F800E025F0200545EA061505D042F6E9
:101DC0000046C4F20106B34207D1CE686FF0400767
:101DD00025F0C00507EA06163543A3F18046A6F5AF
:101DE00096364FEAB626072E0CD8012707FA06F6D4
:101DF00016F0E50F1FBFD1E905672CF440643743A7
:101E000044EA870C48F6FF44CFF6FF6404EA08046E
:101E100044EA0E27C3F804C09F614F6809699F63B5
:101E20001D629F6947F400679F619F6927F480677F
:101E30009F611FE1036843F200461A6AC4F201067B
:101E400022F480721A621D6A1A46D3F804C052F84E
:101E50001CEFB3428E68D1F8008025F4007545EA86
:101E6000062505D042F60046C4F20106B34207D16A
:101E7000CE6840F2FF47360225F44065BE43354345
:101E8000A3F18046A6F596364FEAB626072E0CD863
:101E9000012707FA06F616F0E50F1FBFD1E905671F
:101EA0002CF44054374344EA071C4FF68C74CFF6A9
:101EB000FE740EEA040747EA0807C3F804C0DF61AE
:101EC0004F680969DF631D62DF6947F00807DF615A
:101ED000DF6927F00407DF61CDE0036843F20046C5
:101EE0001A6AC4F2010622F480521A621D6A1A4666
:101EF000D3F804C052F81C8FB3428E68D1F800E0CA
:101F000025F4005545EA063505D042F60046C4F2F0
:101F10000106B34207D1CE6844F6FF77360325F4B5
:101F20004045BE433543A3F18046A6F596364FEAB9
:101F3000B626072E0CD8012707FA06F616F0E50F8D
:101F40001FBFD1E905672CF44044374344EA871C9E
:101F500048F6FF44CFF6FF6404EA080444EA0E277B
:101F6000C3F804C0DF614F6809691F641D62DF693F
:101F700047F40067DF61DF6927F48067DF6179E09C
:101F800003681A6AA3F1804722F480321A621A4663
:101F9000A7F59637D3F820805D6852F850EFD1F856
:101FA00000C08E684FEAB727072F09D80124BC402C
:101FB00014F0E50F1EBF4C6925F4803545EA042571
:101FC00028F4003444EA06444FF68C76CFF6FE76C9
:101FD00003360EEA060747EA0C075D601F654F6887
:101FE00009699F641C621F6D47F008071F651F6D1C
:101FF00027F004071F653EE0012140E003681A6AEC
:10200000A3F1804722F480121A621A46A7F5963788
:10201000D3F820805D6852F850EFD1F800C08E6888
:102020004FEAB727072F09D80124BC4014F0E50F69
:102030001EBF4C6925F4802545EA842528F4001448
:1020400044EA065448F6FF46CFF6FF6606F54076AA
:102050000EEA060747EA0C275D601F654F680969AD
:10206000DF641C621F6D47F400671F651F6D27F456
:1020700080671F650902136819431160002100225F
:1020800080F83C200846BDE8F0810000002804BF2D
:102090000120704710B5044690F83D00211D00282E
:1020A00004BF002084F83C00022084F83D00206832
:1020B00000F0FCF9012084F8480084F83E0084F820
:1020C0003F0084F8400084F8410084F8420084F81E
:1020D000430084F8440084F8450084F8460084F8FE
:1020E000470084F83D00002010BD0000FEE700001E
:1020F000FEE70000FEE70000000000000000000016
:10210000EFF30980BFF36F8F154B1A681EF0100FA5
:1021100008BF20ED108A20E9F04F10602DE909007A
:102120004FF0500080F31188BFF34F8FBFF36F8FD4
:1021300004F076FC4FF0000080F31188BDE8090040
:1021400019680868B0E8F04F1EF0100F08BFB0EC37
:10215000108A80F30988BFF36F8F704700BF00BFFC
:10216000646E0020806A01684A6822F003024A60B7
:10217000016E41F01001016646F69031C2F2000195
:1021800088424FF0010180F85D100CD046F6F43122
:10219000C2F20001884218BF704740F28410C2F2B8
:1021A0000000543004E040F29400C2F200005430C9
:1021B0000068002104F00EBF70470000F0B583B046
:1021C000016846F60476C2F20006846A3768086839
:1021D000800600F18B8020683A46416821F020019A
:1021E0004160416821F00201416020464FF4C05136
:1021F00000F0A4F800284DD140F200023068C2F28D
:10220000000231681368381A00F16402C3F3CB305E
:1022100050430290206883681B060ED533685B1A12
:10222000934212D2029B029D002BA5F1010502955B
:10223000856808BF1A462B06F0D420464FF4C061CB
:102240003A4600F07BF828BB2CE0416821F0E00121
:1022500041606168B1F5827F0AD1A168B1F5004F94
:1022600002D0B1F5806F03D1016821F04001016017
:10227000A16AB1F5005F07D1016821F40051016046
:10228000016841F400510160012084F85D000020E4
:1022900084F85C00206E40F020002066206E40F044
:1022A00020002066A06838B9002001902068C1682D
:1022B00001918068019001980020E087012084F856
:1022C0005D00206E90B146F69030C2F2000084426C
:1022D00028D046F6F430C2F20000844212D140F217
:1022E0008410C2F200005430002121E046F6903004
:1022F000C2F20000844207D046F6F430C2F2000079
:10230000844208D003B0F0BD40F29400C2F2000055
:10231000543001210CE040F28410C2F2000054302D
:10232000012105E040F29400C2F200005430002187
:10233000006803B0BDE8F04004F04CBE70B582B058
:102340004FF0000C46F6047E40F200058DF803C005
:10235000C2F2000EC2F20005DEF80030DEF80040E6
:102360002D682326D21A754302F164032D0D0268ED
:102370005D43019595680D4256D0B1F5C06F19D1F6
:10238000117B8DF803109DF80310DEF80010091B77
:10239000994222D20199019E0029A6F101060196D7
:1023A000966808BF0B4616F4C06FE9D14FF0000CD9
:1023B0003AE000BFDEF80060361B9E420DD2019E5F
:1023C000019D002EA5F101050195956808BF3346D2
:1023D0000D42EFD14FF0000C26E0516821F0E001F2
:1023E00051604168B1F5827F0AD18168B1F5004F33
:1023F00002D0B1F5806F03D1116821F04001116066
:10240000816AB1F5005F07D1116821F400511160B4
:10241000116841F400511160012180F85D10002124
:1024200080F85C104FF0030C604602B070BD0000F5
:10243000074B19680868B0E8F04F80F30988BFF3CC
:102440006F8F4FF0000080F31188704700BF00BF0E
:10245000646E002080B54FF0500080F31188BFF308
:102460006F8FBFF34F8F04F06BFE30B14EF6045008
:10247000CEF200004FF080510160002080F31188FF
:1024800080BD4EF68850CEF20000016841F4700124
:102490000160704746F63C50C2F20000FFF77ABA7E
:1024A00046F68850C2F20000FFF774BA80B540F2D9
:1024B000FF7C0268C4F2000C604512DD40F60003A8
:1024C000C4F20003984215D043F20043C4F2010362
:1024D00098420FD042F60043C4F20103984209D05B
:1024E0000CE0B0F1804F05D040F20043C4F200038D
:1024F000984203D14B6822F070021A4343F2FF3333
:10250000C4F20103984209DC604516DCB0F1804F4B
:1025100028D040F20043C4F2000321E044F2FF332C
:10252000C4F20103984211DC43F20043C4F20103F8
:10253000984217D044F2000310E040F60003C4F2C2
:10254000000398420ED042F6004307E044F6000331
:10255000C4F20103984205D044F20043C4F20103DF
:10256000984203D1CB6822F440721A434B6922F09F
:10257000800E8A6843EA0E03D1F800C00360C2628D
:10258000A0F18042A2F596324FEAB222072AC0F8A3
:1025900028C007D8012303FA02F212F0E50F1CBF8E
:1025A000096901630121416180BD000010B5846AA1
:1025B000616A814211D0A16A814216D0E16A8142EA
:1025C0001BD0216B81421FD1C069082100282177CF
:1025D00004BF012084F8410016E0C16901200029F0
:1025E000207708BF84F83E000EE0C0690221217701
:1025F00050B9012084F83F0006E0C069042121772A
:1026000010B9012084F8400046F6F040C2F2000004
:1026100084420FD046F63C50C2F20000844211D1F1
:1026200040F27810C2F20000806858B1D0E9001082
:10263000884707E040F20810C2F20000006E012156
:1026400004F0C8FC0020207710BD0000806A002143
:1026500001777047816A4A6A82420FD08A6A824251
:1026600010D0CA6A824211D00A6B82424FF0010038
:1026700014BF81F83D0081F841000AE0012081F893
:102680003E0006E0012081F83F0002E0012081F8D1
:10269000400000200877704780B5D0F800E0DEF8F1
:1026A0001CC00CEA01038B4218D046F6047CC2F22F
:1026B000000C00BFDCF800309B1AB3F1007F0FD292
:1026C000DEF800305B0744BFDEF81C305FEA0353DE
:1026D00057D4DEF81C300B408B42EBD1002080BD7C
:1026E000016851E8001F026821F4D07142E800132C
:1026F000BBB3016851E8001F026821F4D07142E8C1
:10270000001373B3016851E8001F026821F4D0710F
:1027100042E800132BB3016851E8001F026821F45E
:10272000D07142E80013002BDAD11AE0016851E8B9
:10273000021F026821F0010142E80213DBB10168C7
:1027400051E8021F026821F0010142E8021393B12F
:10275000016851E8021F026821F0010142E80213FA
:102760004BB1016851E8021F026821F0010142E803
:102770000213002BDAD12021C0F8841000F1880167
:1027800056E04FF40061CEF8201000BF016851E818
:10279000001F026821F4D07142E80013BBB3016846
:1027A00051E8001F026821F4D07142E8001373B3AE
:1027B000016851E8001F026821F4D07142E800135B
:1027C0002BB3016851E8001F026821F4D07142E880
:1027D0000013002BDAD11AE0016851E8021F0268E9
:1027E00021F0010142E80213DBB1016851E8021F48
:1027F000026821F0010142E8021393B1016851E837
:10280000021F026821F0010142E802134BB1016886
:1028100051E8021F026821F0010142E80213002B77
:10282000DAD12021C0F88410C0F8881000F18C01A2
:1028300020220A60002180F88010032080BD000063
:10284000FEE7B0B540F29400C2F2000003F06EFA69
:1028500046F69031C2F20001816540F28410C2F266
:10286000000003F063FA46F6F431C2F2000181651C
:1028700040F2F00446F6F040C2F20004C2F200005A
:102880000025C4E9000540F20810C2F2000003F080
:102890004DFA0421C0E9154140F2F80046F6A44182
:1028A000C2F20000C2F20001C0E9001540F26C1152
:1028B000C2F20001C1E9000540F2001046F63C51A9
:1028C000C2F20000C2F20001C0E9001540F2781126
:1028D000C2F20001C1E90005B0BD000080B52BA027
:1028E00040F27C210830C2F2000140F2940240F232
:1028F0000043C2F20002C4F6000381E80D004FF469
:102900000060888124A040F28C220830C2F20002CC
:10291000106046F20440115040F21820C2F200004C
:1029200003F004FA40F20811C2F2000147F27C12EF
:102930005430C2F2000205230EC040F21420C2F24D
:1029400000000121017040F21620C2F20000017067
:1029500040F2E010C2F2000040F26C1145F6637CD8
:10296000C2F2000140F2781245F6ED63C0F6000CA9
:102970004FF07E5E00F11807C2F20002C0F60003BD
:102980000EC7C0E9090CC0E90B0E80BD00000000B5
:1029900000000000175600080000000000000000C2
:1029A00079480008054E0008B5470008F14E0008B8
:1029B000F5490008634F0008414B0008C148000872
:1029C0004D49000840F278000CA1C2F200004FF01F
:1029D000000C08314FF00A12C0E9001C48F2E8412F
:1029E0008260C0F6000108A24FF6FF73C0E904122E
:1029F000FF21838181760383704700BF00000000C0
:102A000000000000355E000830313233343536378F
:102A10003839000040F28C24C2F2000440F27808F9
:102A200040F2A00A251D4FF448500026C2F20008CB
:102A300046F20449C0F2500A2946013821F8026BD7
:102A4000FBD140464FF00A11224603F0F3F954F847
:102A50000900524601682B460F680021B8474FF421
:102A60004850E9E74843B0FBF2F070472DE9F04FDA
:102A70009FB04EF60C55CEF20005A8694FF6FF0147
:102A800040F4E040A861286841F20009084040F2A3
:102A90000031C0F2FA51084347F2000428600F20C9
:102AA000C4F20209C4F20004FEF788F9002840F0DD
:102AB0009380D9F860004FF0FF3240F00100C9F870
:102AC0006000D9F8600000F001000E900E98D9F86F
:102AD000580040F08050C9F85800D9F8580000F06C
:102AE00080500E900E982868C0F3022181F00703F1
:102AF0000420042B28BF0346CF1E02FA03F64FF032
:102B000005034FF0000138BF0F4623EA060606FA18
:102B100007F73F012F732F68C7F3022787F00706D7
:102B2000042E28BF0646033F02FA06F638BF0F46BA
:102B300023EA060606FA07F73F016F732F68C7F30B
:102B4000022787F00706042E28BF0646033F02FA35
:102B500006F638BF0F4623EA060606FA07F73F01D6
:102B6000AF732F68C7F3022787F00706042E28BF2C
:102B70000646033F02FA06F638BF0F4623EA06066A
:102B800006FA07F73F01EF742F68C7F3022787F0B3
:102B90000706042E28BF064602FA06F6033F23EA7C
:102BA000060338BF0F46BB401B012B752B68C3F3D0
:102BB000022383F00707042F38BF384602FA00F0DB
:102BC000033B6FEA000038BF0B4698400001A87530
:102BD000A06840F48040A0602068D4F8801000F421
:102BE000C06040F2000521F48071B0F5806FC2F240
:102BF0000005C4F8801025D12068012161F34A2026
:102C000020602868322148434DF68361C4F21B31AD
:102C1000A0FB0101880C00BF6169490511D5411C69
:102C20000FD0616949050CD558B16169490508D5CE
:102C3000012806D06169490503D50228A0F10400E6
:102C4000EAD16069D9F80800D9F80C2000F00C012D
:102C5000D9F8000046F6047B46F608740429C2F24F
:102C6000000BC2F200041DD002F0030281F00C013F
:102C700082F002021144B1FA81F1490912D140F403
:102C80008070C9F8000000BFDBF80000D9F8000030
:102C90004005F9D5D9F80400402161F31E60C9F858
:102CA00004000DE0D9F80400402161F31E60C9F86A
:102CB000040021781020002918BF0F20FEF77EF8AD
:102CC000D9F8980040F00100C9F89800DBF800003E
:102CD000D9F898008007F9D5D9F8080000F00C0061
:102CE0000C2802D1D9F80C0030E0D9F8000020F00F
:102CF0008070C9F80000DBF8000045F23250C1F2E4
:102D0000000000BFD9F80010890102D5DBF80010DF
:102D1000F8E7D9F80C1048F20C02C0F29F121140EB
:102D20000843C9F80C00D9F8000040F08070C9F8D9
:102D30000000D9F80C0040F08070C9F80C0000BF0A
:102D4000DBF80000D9F800008001F9D542F200005C
:102D5000C4F20200016811F00C0F05D101680422D1
:102D600062F3030101600168D9F80010D9F80C1072
:102D700042F20047D9F80C20C0F2F40701F0030139
:102D8000C2F3031203293946D9F80C3002F10102CB
:102D900004BF41F20021C0F27A01B1FBF2F1D9F88F
:102DA0000C20C3F306235943C2F34162022303EB11
:102DB0004202B1FBF2F14BF20142C0F2C44241F2D5
:102DC00000239142C0F27A0308D3D9F80810D9F849
:102DD0000810082262F30711C9F80810D9F8081082
:102DE00041F00301C9F80810DBF80010D9F8081009
:102DF00001F00C010C29F7D1D9F80810072241F491
:102E0000E061C9F80810D9F8081062F30D21C9F87B
:102E10000810D9F8081021F0F001C9F8081001686D
:102E200001F00F0105290CD30168042262F30301AC
:102E3000016000BFDBF80010016801F00F010429F8
:102E4000F8D1D9F8080020F4E060C9F80800D9F8F2
:102E5000080020F46050C9F80800D9F8080000F014
:102E60000C00042838462CD0D9F8080000F00C00DB
:102E70000828184625D0D9F8080000F00C000C28C6
:102E80001ED1D9F80C00D9F80C1000F00300C1F3E2
:102E9000031103283846D9F80C2001F1010108BFBD
:102EA0001846B0FBF1F0D9F80C10C2F306225043DB
:102EB000C1F34161022202EB4101B0FBF1F000E0FD
:102EC0000020D9F8081048F2C042C1F30311C0F63F
:102ED0000002515C40F2004601F01F01C840217819
:102EE00028601020C4F60006002918BF0F20FDF747
:102EF00065FF0024CDE91144D9F84C004FF4006A75
:102F000040F00400C9F84C00D9F84C000EAD00F0B8
:102F1000040007900798D9F84C004FF4441740F08C
:102F20000200C9F84C00D9F84C004FF0020800F03C
:102F3000020007900798D9F84C00294640F001009C
:102F4000C9F84C00D9F84C0000F001000790079830
:102F50004FF44040C6F828A00E9006F580600F9709
:102F6000CDF84080FDF758FE40F204400EA981E8FC
:102F7000810130462946FDF74FFE0120CDE90F04BF
:102F800030462946CDF838A01194FDF745FE4EF69F
:102F90000C5CCEF2000CDCF800004FF0FF3EC0F3FA
:102FA000022181F007020420042A28BF0246CB1E1A
:102FB0000EFA02F74FF0050238BF234622EA070750
:102FC00007FA03F34EF200111B01CEF2000181F863
:102FD00008334FF480770F60DCF800304FF48055F1
:102FE000C3F3022383F00706042E28BF0646033BE3
:102FF0000EFA06F638BF234622EA060606FA03F35F
:103000001E014EF20D43CEF20003DE764F60D9F87A
:1030100048704FF4827A47F00407C9F84870D9F82D
:1030200048704FF4E06807F004070E970E9FD9F838
:10303000487047F00107C9F84870D9F8487007F0A0
:1030400001070E970E9FD9F8487047F00207C9F89C
:103050004870D9F8487007F002070E970E9FDCF809
:103060000070C7F3022787F00706042E28BF064624
:10307000033F0EFA06F638BF274622EA060606FA8E
:1030800007F73F0181F80C730D60DCF8006007273B
:10309000C6F3022686F00705042D28BF0546033E29
:1030A0000EFA05F538BF264622EA050505FA06F6AA
:1030B00036011E704FF400550D60DCF80060C6F359
:1030C000022686F00705042D28BF0546033E0EFAAA
:1030D00005F538BF264622EA050505FA06F636014B
:1030E0005E704FF480460E60DCF80060C6F3022686
:1030F00086F00705042D28BF0546033E0EFA05F5A8
:1031000038BF264622EA050505FA06F63601DE70C6
:103110004FF480360E60DCF80060C6F3022686F0BD
:103120000705042D38BF28460EFA00F0033E22EAB8
:10313000000038BF2646B040000183F82B004FF056
:103140008070486046F6903043F60005C2F20000F9
:103150004FF400414FF480220826C4F20005C0E974
:10316000005AC0E90218C0E90444C0E90626C0E9D3
:103170000844C0E90A47C0E90C46FEF713F846F6D2
:10318000F43005F58061C2F20000C0E9001A4FF486
:103190008021C0E90248C0E90444C0E90616C0E93C
:1031A0000844C0E90A47C0E90C46FDF7FBFF0EAD35
:1031B000284634210694CDE904440194FDF7EFFA42
:1031C00047F2000AC4F2000A46F658460AF5504093
:1031D000C2F200064FF6FF77C6E900043046C6E9A2
:1031E0000247C6E90444B461FEF7CEF94FF48050BB
:1031F000039003A93046FEF7D3FA3046FEF746FFA8
:103200006946304600940294FEF76CF96020CDE9DF
:10321000070707AF07F108001421FDF7C0FA304691
:1032200039460022FEF754FD28461421FDF7B7FA6F
:103230004FF40050CDE91304304629461A94FEF7A6
:10324000F1F896F83E00012834D1022086F83E00BD
:103250003068016A21F001010162016A41F0010256
:103260004DF20041CBF6FE7101444FEAB12106292F
:10327000026200F27C81012202FA01F111F0650F75
:1032800000F07581416C42F6FF32C4F2010241F454
:103290000041904241640FDCB0F1804F1ED040F2FB
:1032A0000041C4F20001884218D040F60001C4F287
:1032B000000111E030681FE042F60041C4F2010154
:1032C00088420BD044F20001C4F20101884205D0CB
:1032D00043F20041C4F20101884209D1816807220A
:1032E000C0F201021140062906D0B1F5803F03D09B
:1032F000016841F001010160FEF797FC46F6D458E1
:103300000AF54845C2F200084FF4E13000240C26CB
:10331000C8E9005008F118001421C8E90244C8E9BE
:103320000446FDF73CFAD8F8840020B100200021C3
:103330000023002253E00EAD05F108003C2188F87F
:103340008040FDF72CFA0120CDE90E042846FDF758
:10335000B5FDD9F8600007A940F48040C9F86000C5
:10336000D9F8600000F4804007900798D9F84C0025
:1033700040F00100C9F84C00D9F84C0000F0010001
:10338000079007984FF4C06007900220CDE9080429
:1033900007200B904FF090400A94FDF73DFC46F655
:1033A00014076C20C2F20007C4F202001921102297
:1033B000802387E817003846C7E90434C7E9064484
:1033C0003C62FDF7ABFAD8F80050D8E90220D8E902
:1033D0000436D8E90641C8F87870C7F82880242751
:1033E000C8F884702F681A4327F001072F602B68F4
:1033F00046F6F317CCF6FF7732433B401A430A43B5
:103400002A606A684FF2FF4322F44052104368601A
:103410000AF58052D8F82000954218BF0443A868E6
:10342000C1F2FF1318402043A860EB6AD8F82400CB
:1034300023F00F030343EB6244F6FF33C4F20003AF
:103440009D424FF010031ADD44F60047C4F2000716
:1034500042F20046BD42C0F2F40624D048F2000712
:10346000C4F20007BD4222D043F60007C4F20107B0
:10347000BD422BD1D9F888300FF67C6722E044F2A8
:103480000047C4F2000742F20046BD42C0F2F40613
:1034900011D044F60007C4F20007BD4216D1D9F896
:1034A00088301B090AE0D9F888309B0906E0D9F872
:1034B00088309B0A02E0D9F888309B0848F2B04770
:1034C000C0F6000703F0030357F82330954218D0E5
:1034D000B1F5004F35D13146DFE813F00900F900AE
:1034E0000E01680983006809680968090C0140F247
:1034F0000001C2F200010968D9F80820C2F30222D3
:10350000EEE03146DFE813F0090052095900520994
:103510004700520952095209440040F20001C2F228
:1035200000010968D9F8082048F2E043C2F30222FA
:10353000C0F600039A5C02F01F02D14000293CD182
:1035400014E13146DFE813F00900EE00030132090F
:103550008900320932093209010140F20001C2F248
:1035600000010968D9F80820C2F30222E3E042F61C
:10357000FF31C4F2010188427FF78EAE43F6FF713E
:10358000C4F20101884200F3A38642F600419BE6A3
:103590004FF4004111E0D9F8081001F00C010429A2
:1035A00031460AD0D9F8081001F00C01082941F27F
:1035B0000021C0F27A0140F0B98647F2F252C0F61B
:1035C000000232F81000D8F80420B1FBF0F000231C
:1035D000010E000210EB520041F10001FCF7F8FF70
:1035E000C3E0D9F8081001F00C010429314600F0BD
:1035F0008380D9F8081001F00C01082941F200215C
:10360000C0F27A0178D0D9F8081001F00C010C2929
:1036100040F0AC80D9F80C10D9F80C2001F003016F
:10362000C2F303120329314641F20027D9F80C30C6
:1036300002F10102C0F27A0708BF3946B1FBF2F18C
:10364000D9F80C20C3F306235943C2F34162022385
:1036500003EB4202B1FBF2F14AE0D9F8081001F0A5
:103660000C010429314672D0D9F8081001F00C0180
:10367000082941F20021C0F27A0168D0D9F8081077
:1036800001F00C010C2971D1D9F80C10D9F80C20DB
:1036900001F00301C2F303120329314641F200276E
:1036A000D9F80C3002F10102C0F27A0708BF39469E
:1036B000B1FBF2F1D9F80C20C3F306235943C2F34E
:1036C0004162022303EB4202B1FBF2F13BE040F224
:1036D0000001C2F200010968D9F80820C2F3C22231
:1036E00048F2E043C0F600039A5C02F01F02D140AA
:1036F00011B93BE04FF4004147F2F252C0F600022C
:1037000032F81000D8F80420B1FBF0F0510801EBBA
:103710004000B0FBF2F04FF6F0710140C0F3420000
:10372000084422E040F20001C2F200010968D9F821
:103730000820C2F3C22248F2E043C0F600039A5CBC
:1037400002F01F02D14011B910E04FF4004147F2DE
:10375000F252C0F6000232F81000B1FBF0F0D8F8D7
:10376000041000EB5100B0FBF1F0E860D8F828102D
:103770004FF00110C8F8680000200029C8F8700058
:10378000C8F8740051D0CA0706D06A68D8F82C303F
:1037900022F400321A436A608A0706D56A68D8F8AC
:1037A000303022F480321A436A604A0706D56A68CC
:1037B000D8F8343022F480221A436A600A0706D50A
:1037C0006A68D8F8383022F400421A436A60CA06A0
:1037D00006D5AA68D8F83C3022F480521A43AA6071
:1037E0008A0606D5AA68D8F8403022F400521A4357
:1037F000AA604A0610D56A68D8F8443022F48012CC
:103800001A43B3F5801F6A6006D16A68D8F8483059
:1038100022F4C0021A436A60090606D56968D8F81E
:103820004C2021F4002111436960696821F4904122
:103830006960A96821F02A01A960296841F00101A5
:103840002960C8F88C00DBF800702868000707D5ED
:1038500040464FF400113A46FEF71EFFD8F80050DC
:103860002868400707D540464FF480013A46FEF7E6
:1038700013FFD8F80050202200204FF0240CC8F885
:103880008420C8F88820C8F86C0088F88000C8F840
:1038900084C02E68286848F2D04120F001002860DA
:1038A000A86848F2D84E20F06040A860D8F864704C
:1038B000C0F60001C0F6000E8FB1AB68AC68C3F370
:1038C0004263640F085D1EF80440C000B0FBF4F4CE
:1038D000C85C1EF80330C000B0FBF3F301E0012424
:1038E0000123A8F86A40A8F868302E60C8F8842040
:1038F000C8F884C02A68286820F001002860A868F9
:1039000020F06060A8608FB1A868AB68C0F3426027
:103910005B0FCF5C095C1EF803301EF80000FF004F
:10392000C900B7FBF3F3B1FBF0F001E00123012084
:10393000A8F8680020202421A8F86A302A60C8F876
:103940008400C8F8841029682A6821F0005122F008
:1039500001022A600022C8F864202960C8F88400A7
:1039600043F60000C4F2000046F6740400F510505F
:10397000C2F20004022388F88020082184E80B00AA
:10398000C4E90432C4E90622226294F8A932D3B908
:103990000EAD281D402184F8A822FCF700FF4FF44B
:1039A00000500E902846FDF789FAD9F8580040F4E7
:1039B0000000C9F85800D9F8580000F4000007903A
:1039C0000798D4E90001032284F8A922B0F8402026
:1039D00044F27F031A40A0F8402059B3002201238B
:1039E0000026002706EB860604EBC60585F828703E
:1039F000FEB20137EE86FEB2B14285F8293085F875
:103A00002B20C5E90E222A64ECD8002200270023CF
:103A100007EB870704EBC70686F868310133DFB28E
:103A2000B94286F8692186F86B21C6E95E22C6F89C
:103A30008021EDD801214FF00008A0F84010A0F837
:103A40004080A0F84480A0F8508084F8248084F856
:103A5000A912E269012A0FD1C4F8E81284F8E082C1
:103A6000B0F8541041F00101A0F85410B0F854100F
:103A700041F00201A0F8541046F6F045C2F20005EC
:103A80004FF08041432042F6000A0222C5E90010AF
:103A90002846C4F2000ACDF82880CDE90888CDF880
:103AA0001080CDE91388CDE91188C5E90282C5F8F7
:103AB0001080C5F81880FDF767FD4FF4805607A900
:103AC00028460796FDF76CFE2846FEF7DFFA03A9A5
:103AD0002846CDF80C80CDF81480FDF703FD602456
:103AE0000EA928460422CDE90E48CDF84080CDF835
:103AF0004880FEF7EDF82868FEF797F846F63C5741
:103B0000AAF51050C2F20007802141F2883287E8FE
:103B100003013846CDF82880CDE90888CDF810801B
:103B2000CDE91388CDE91188C7E90328B961FDF70C
:103B30002BFD07A938460796FDF732FE3846FEF7FB
:103B4000A5FA03A93846CDF80C80CDF81480FDF70E
:103B5000C9FC0EAD384629460022CDE90E48CDF805
:103B60004080CDF84880FEF7B3F83846FDF7CEFD2B
:103B700097F83E00012858D1022087F83E003868A7
:103B8000C16841F00201C160016A21F001010162D6
:103B9000016A41F001024DF20041CBF6FE71014491
:103BA0004FEAB1210629026200F26A83012202FA79
:103BB00001F111F0650F00F06383416C42F6FF32B2
:103BC000C4F2010241F40041904241640DDCB0F1C5
:103BD000804F1CD040F20041C4F20001884216D050
:103BE00040F60001C4F200010FE042F60041C4F2C9
:103BF000010188420BD044F20001C4F20101884265
:103C000005D043F20041C4F20101884209D1816824
:103C10000722C0F201021140062906D0B1F5803F0B
:103C200003D0016841F00101016005F11C0014217D
:103C3000FCF7B5FD47F20000C4F2000046F6A447C9
:103C400000F55840C2F200070026FE21C7E9000631
:103C50003846C7E90261C7E90466BE61FDF794FC16
:103C60003846FEF713FA60200790012007AC089051
:103C700004F108001421FCF792FD38462146002289
:103C8000FEF726F828461421FCF789FD4FF4005072
:103C9000CDE91306384629461A96FDF7C3FB386866
:103CA000FDF7C3FF46F66834C2F200047F2004F13A
:103CB0000802FF2143C24FF08040C4E900A6C4E9D6
:103CC0000566C4E9070694F8250000BB281D3C21C1
:103CD00084F82460FCF763FD4FF400200E904FF44D
:103CE00000701E902846FDF7E9F8D9F8900040F4DE
:103CF0000040C9F89000D9F8580040F48060C9F835
:103D00005800D9F8580000F480600790079842F6F0
:103D10000C000221C4F2000084F82510CA21816140
:103D200053218161016840F2000342F200424906DA
:103D3000C2F20003C0F2F40215D4016841F0800120
:103D40000160DBF80010006840060CD4D4F800A035
:103D5000DBF80000401AB0F57A7F00F21F85DAF830
:103D60000C004006F4D5DAF818004FF6BF71CFF614
:103D70008F310840CAF81800DAF81800CAF818009D
:103D8000FF20C0F27F00CAF81000D4F800A0DAF8D3
:103D90000C0020F08000CAF80C00DAF81800800649
:103DA00017D4DAF80C0020F02000CAF80C00DBF879
:103DB000000000BFDAF80C10890634D4DBF80010DC
:103DC000091AB1F57A7FF5D9032084F8250000F0AF
:103DD000EABCDAF8180020F02000CAF81800DAF877
:103DE0000C0020F02000CAF80C00DBF8000000BF37
:103DF000DAF80C10890610D4DBF80010091AB1F5B6
:103E00007A7FF5D9032084F82500DAF8180040F00D
:103E10002000CAF8180000F0C6BCDAF8180040F01C
:103E20002000CAF81800DAF81800022161F35F7068
:103E3000CAF81800FF20CAF82400012084F82500E1
:103E4000D9F8080000F00C0004282ED04EF60C5AC9
:103E50000828CEF2000A22D00C282CD1D9F80C0068
:103E6000D9F80C1041F2002700F00300C1F3031150
:103E7000C0F27A070131022808BF1746D9F80C00B2
:103E8000B7FBF1F1D9F80C20C0F306204843C2F388
:103E90004161022202EB4101B0FBF1F203E041F289
:103EA0000022C0F27A021A6006E04EF60C5A1A603E
:103EB000CEF2000A00E01A68D9F8080048F2C041C2
:103EC000C0F30310C0F60001085C40F2004122FA82
:103ED00000F0186040F21420C2F200000078C4F62E
:103EE000000140F216220969C2F20002002818BF40
:103EF000042012780840B2EB900F41D14EF200132B
:103F000000204FF0FF31CEF2000300BF03EB800230
:103F100001300828C2F88010F8D1BFF34F8F4FF05E
:103F2000FF30BFF36F8FC9F83800C9F83C00C9F8FB
:103F30004000C9F82800C9F82C00C9F8300000205A
:103F4000C9F83800C9F83C00C9F84000C9F8280091
:103F5000C9F82C00C9F83000C9F85800C9F85C004D
:103F6000C9F86000C9F84800C9F84C00C9F8500009
:103F70000020C1F6FF70D0E9000180F308880847EF
:103F800040F27C24C2F200046068006D01F0DCFBAA
:103F900060680121826D8DF838101168A2684B6845
:103FA000072767F30B234B60A18991620EA90122B9
:103FB00001F0C8F946F61479C2F20009D9F80000F8
:103FC00048B14FF0500080F31188BFF36F8FBFF3FB
:103FD0004F8F00BFFEE7D9F8000000210130C9F87B
:103FE00000007820782501F0D1FF03F001FA38B9FC
:103FF0004FF080504AF8080CBFF34F8FBFF36F8F1C
:104000008DF838500EAD2046362101222B4601276F
:1040100001F0DEFA05208DF8380020463A21012211
:104020002B4601F0D5FA40F60C40C3F200300E905A
:1040300033208DF83C002046B22105222B4601F0AA
:10404000C7FA35208DF838002046B72101222B46CB
:1040500001F0BEFA19208DF838002046BB2101225C
:104060002B4601F0B5FA2C208DF838002046C021EF
:1040700001222B4601F0ACFA2046C22101222B4638
:104080008DF8387001F0A4FA12208DF8380020461F
:10409000C32101222B4601F09BFA20208DF8380025
:1040A0002046C42101222B4601F092FA0F208DF800
:1040B00038002046C62101222B4601F089FA4AF237
:1040C000A410ADF838002046D02102222B4601F082
:1040D0007FFA40F2D040C1F20D100E9042F613303C
:1040E000C5F23F400F9041F64C00C0F60D301090E5
:1040F00042F21F30ADF844002046E0210E222B464C
:1041000001F066FA40F2D040C1F20C100E9042F677
:104110001340C4F23F400F9042F65170C1F61F7039
:10412000109042F22030ADF844002046E1210E22EA
:104130002B4601F04DFA60682121826D8DF81C102C
:104140001168A2684B68072565F30B234B60A189B2
:10415000916207A9012201F0F5F860681121826DD2
:104160008DF81C101168A2684B6865F30B234B6037
:10417000A189916207A9012201F0E4F86068292170
:10418000826D8DF81C101168A2684B6865F30B23D3
:104190004B60A189916207A9012201F0D3F8606800
:1041A000006D02F07FFC40F21827C2F20007786D24
:1041B0004AF6AB21406DCAF6AA21006840F2E0142D
:1041C0000068C2F20004C06A0130A0FB0101480887
:1041D000A7F8600021F00100A7F86200204601F076
:1041E00039F9E06904F1200201684A6004F128010C
:1041F000816042F61520C0F600000FF2B0514FF476
:10420000C07202F0B1FE002010210022002301F054
:1042100067FA012000211022002301F061FA022038
:1042200000210022102301F05BFA03200421042264
:10423000042301F055FA786D006D01F085FA46F619
:104240006468C2F20008D7E91521F86DD8F800308B
:104250001366D2E915341D685CB1221F4FEAB20221
:10426000032A26D8DFE802F0021C1F2205F13F03D3
:1042700021E02A4612F83E3F022B40F08D8094E167
:1042800042F6FF31C4F2010188427FF7A0AC43F649
:10429000FF71C4F20101884236DC42F60041ACE411
:1042A00005F1400307E005F1410304E005F1420395
:1042B00001E005F143031B78022B00F07681032A0D
:1042C00068D8DFE802F0025E616405F13F0263E056
:1042D00044F20001C4F2010188423EF4FFAF44F60B
:1042E0000001C4F20101884202BF416C41F4004167
:1042F0004164FEF7FDBF00BF0100000004000000A4
:10430000020000000800000044F20001C4F20101B4
:1043100088423FF47CAC44F60001C4F201018842BB
:1043200002BF416C41F4004141647AE4D9F80810BD
:1043300001F00C010C297FF419AAD9F80C10D9F856
:104340000C2001F00301C2F303120329314641F2AC
:104350000027D9F80C3002F10102C0F27A0708BF39
:104360003946B1FBF2F1D9F80C20C3F306235943C7
:10437000C2F34162022303EB4202B1FBF2F1FFF709
:10438000DDB805F1400207E005F1410204E005F166
:10439000420201E005F143021278012A40F0058152
:1043A00000EB40004FEA001031B94FF6F072C0F256
:1043B0000102024040F0F98064B1221F4FEAB202CC
:1043C000032A17D8DFE802F0020A0E12022285F84B
:1043D0003F2012E0022285F83E200EE0022285F8FE
:1043E00040200AE0022285F8412006E0022285F8FA
:1043F000422002E0022285F843204FEAB402032A59
:1044000000F2D38040084FF6F87C00EA0C03DFE8A6
:1044100002F0021F3C58686A42F2AD56C0F6000630
:104420002A68C662686A42F24D66C0F600060663F4
:10443000686A42F25566C0F600064663686A34321E
:10444000FCF700FB002840F0B0804FF4007153E00F
:10445000A86A42F2AD56C0F600062A68C662A86A8B
:1044600042F24D66C0F600060663A86A42F255663F
:10447000C0F600064663A86A3832FCF7E3FA002863
:1044800040F093804FF4806136E0E86A42F2AD5626
:10449000C0F600062A68C662E86A42F24D66C0F6B7
:1044A00000060663E86A42F25566C0F600064663F7
:1044B000E86A3C32FCF7C6FA002876D14FF4006176
:1044C0001AE0286B42F2AD56C0F600062A68C662B2
:1044D000286B42F24D66C0F600060663286B42F276
:1044E0005566C0F600064663286B4032FCF7AAFA10
:1044F00000285AD14FF480512868C2681143C16026
:1045000004F01F020121036A01FA02F293430362DD
:10451000036A13434DF20042CBF6FE7202444FEAA7
:10452000B222062A036200F21781914011F0650F52
:1045300000F01281416C42F6FF32C4F2010241F4F4
:104540000041904241640DDCB0F1804F1CD040F23C
:104550000041C4F20001884216D040F60001C4F2C6
:1045600000010FE042F60041C4F2010188420BD085
:1045700044F20001C4F20101884205D043F2004137
:10458000C4F20101884209D181680722C0F2010208
:104590001140062906D0B1F5803F03D0016841F0F3
:1045A00001010160002002F05BF8786D006D02F0FF
:1045B00079FA40F2100E4FF0500080F31188BFF3EB
:1045C0006F8FBFF34F8FC2F2000EDEF800104A1C4F
:1045D0000029CEF800205BD0D8F80040D4E902369C
:1045E00067699E60E5686B607E68231D9E424FF0A0
:1045F000000608BF7D6066613E68013E3E603F6820
:10460000AFB9E76A46F6706507EB8706C2F20005A8
:1046100055F826605EB946F61C75C2F200054FF0EB
:10462000010C2E680CFA07F726EA07072F60A76A25
:104630008FB1D4E9076504F11800B560256A6E6092
:104640007E6886424FF0000008BF7D60A062386837
:1046500001383860386846F61870C2F20000076802
:1046600001370760D8F8000084421ED046F60C706F
:10467000C2F200000368013B036046F66863C2F2C1
:1046800000031868006830B31868C068036824E045
:104690005AF8083C1B069FD04FF0500080F3118859
:1046A000BFF36F8FBFF34F8FFEE747F2CC20C2F20C
:1046B000000007684668A660B568E560B5686B608D
:1046C000B3607B1C6061036046F61070C2F20000AC
:1046D0000368013305E04FF0FF3347F29420C2F244
:1046E00000000360CAB1CEF8001011B9002080F3B9
:1046F0001188D8F80000844202D0204601F0E2FD83
:1047000047F2B420C2F20000006818B1D8F80000E7
:1047100084420CD01FB0BDE8F08F4FF0500080F302
:104720001188BFF36F8FBFF34F8F00BFFEE7D9F83B
:10473000000040B14FF0500080F31188BFF36F8F3D
:10474000BFF34F8FFEE74FF080504AF8080CBFF3DD
:104750004F8FBFF36F8FDDE742F6FF31C4F20101E7
:1047600088427FF7F1AE43F6FF71C4F2010188423F
:1047700002DC42F60041FDE644F20001C4F2010110
:1047800088423FF401AF44F60001C4F201018842BF
:1047900002BF416C41F400414164FFE6032084F80C
:1047A0002500DAF80C00FF20CAF824006469737051
:1047B0006C6179002DE9F0410FB2150C002F02EB6E
:1047C000010406D48AB2A02A2CBF4FF09F0E8E4659
:1047D00001E04FF0000E05EB11420029A4F1010C9D
:1047E00004D4090C502928BF4F2100E000210FFA02
:1047F0008CF4002CA2F1010206D41FFA8CF4A02C38
:1048000028BF4FF09F0C01E04FF0000C14B2002CB9
:1048100004D494B2502C28BF4F2200E000220FFA9B
:1048200082F80AB24245C8BFBDE8F0811A0240F2E0
:10483000FF74A2434FF4FC6404EA53142244C3F30C
:10484000C44313440FFA8CF20FFA8EFC94450DDC2E
:104850000DB2764637B205EB8504013600EB8414C1
:1048600036B204EB47049642A380F3DD013109B26E
:104870004145EBDDBDE8F0810B0D042B1ED84FF652
:10488000FF7343EA014C4FF6FE73C0F2A0039C4550
:1048900088BF70474FF4FC6302F0F80C03EA521330
:1048A00043EA0C23C2F3C4421A440B0C03EB830308
:1048B00089B200EB831000EB41008280704700005A
:1048C0002DE9F04F85B09DF838701E041C461DB2CE
:1048D00022F07F433246CDE903010293BB460097A5
:1048E00000F073F9012D2DDB0026A6EB4407C4F17F
:1048F00001084FF0010900BF0FFA88F009F1020921
:10490000B91CB0F1FF3FC844C8BF0F46B0F1FF3F2C
:10491000C8BF884402996FEAE03205F07F4045182D
:104920002AF0FF001444013600EB0B0ADDE9030115
:1049300046EA04422B46CDF800A000F046F920B22A
:104940008642D9DB05B0BDE8F08F00002DE9F04FBD
:1049500085B01D46136804911968546809680646B5
:10496000184600928847210C02913BD007460498D4
:104970001FFA84F8000C019025F07F450023404683
:1049800050B318B208FB00F901984FF0000B18441F
:104990004FEA004A039300BF09FA8BF0C108795C23
:1049A00000F0070021FA00F0C0070CD0049804F0D2
:1049B0007F42584480B24AEA0001306854190368C3
:1049C0003046224698470BF1010B0FFA8BF08045D9
:1049D000E2DC039B404600E000200133029A19B25A
:1049E0008A42CDDC009800680168496805B0BDE8DE
:1049F000F04F08472DE9F04F89B09046120C1FFA8E
:104A000088F7044612980497B7EB184F174638BF3B
:104A10004746C7F34E078742A8BF20EAE07708EB76
:104A20000100FD437E1800EB050B02EB2140C51B86
:104A3000B0B2CDE907120690206807EB214A029632
:104A4000C6EA0A41866923F07F494FF0010C2046EF
:104A50004A463B46CDF800C0B04720681FFA8BF1AC
:104A600086690591CBEA0A414FF0020C20464A467E
:104A70003B46CDF80CA0CDF800C0B0470020CFF6E3
:104A8000FE70216800EB05460698D1F818C0311871
:104A90004FF0040E20464A463B46CDF800E0E04782
:104AA00020684A46D0F818C005983B4631180826B9
:104AB00020460096E047A8EB47000104B1F5003F0F
:104AC0004FEA470B1DDD4FF6FE7202991044226833
:104AD000C0EA0740079B4FEA054A0131976800F595
:104AE00080358EB2C1EA030120462A464B46B847BC
:104AF0002068AAF580318768314320462A464B4614
:104B0000B8470898A0EB0B000004B0F5003FDCBFED
:104B100009B0BDE8F08F0399079A090401F58031C7
:104B200092B223681143049AA0F50030D3F808C06C
:104B3000024320464B4609B0BDE8F04F60470000F5
:104B40002DE9F04F85B09DF838701E041C461DB24B
:104B500022F07F433246CDE903010293BB46009722
:104B600000F0B0F8012D2DDB0026A6EB4407C4F1C0
:104B700001084FF0010900BF0FFA88F009F102099E
:104B8000B91CB0F1FF3FC844C8BF0F46B0F1FF3FAA
:104B9000C8BF884402996FEAE03205F07F404518AB
:104BA0002AF0FF001444013600EB0B0ADDE9030193
:104BB00046EA04422B46CDF800A000F083F820B26C
:104BC0008642D9DB05B0BDE8F08F2DE9F04F81B00A
:104BD0000A9F984615460E4604464FEA1149B80703
:104BE0004FEA124A16D522687019A9EB0A01136818
:104BF00028F07F4BC0EA014120465A469847216879
:104C000006EB0A00A9EB05020B68C0EA0241204648
:104C10005A469847F8075FFA87FB16D02268701B40
:104C2000A9EB0A01136828F07F47C0EA014120463A
:104C30003A4698472168A6EB0A00A9EB05020B68E3
:104C4000C0EA024120463A4698475FEA0B7019D500
:104C50004FF6FF71226826EA010170192944136892
:104C600028F07F47C0EA010120463A46984721686C
:104C700006EB0A0009EB05020B68C0EA0241204678
:104C80003A4698475FEA4B705CBF01B0BDE8F08FD1
:104C90002268701B09EB0A01136828F07F47C0EAFD
:104CA000014120463A4698472268A6EB0A0009EBE4
:104CB00005011368C0EA014120463A4601B0BDE84B
:104CC000F04F18472DE9F04F81B00A9D9846934662
:104CD0000E4604460F0CA8074FEA124A20D5226858
:104CE00006EB0B00A7EB0A01C0EA014128F07F495F
:104CF000C0EA0600D2F804C000F5803220464B46D8
:104D0000E047226806EB0A00A7EB0B017B1CD2F8F8
:104D100004C0C0EA0141C0EA034220464B46E047D6
:104D2000E807EDB220D02268A6EB0B00A7EB0A0142
:104D3000C0EA014128F07F49C0EA0600D2F804C069
:104D400000F5803220464B46E0472268A6EB0A0079
:104D5000A7EB0B017B1CD2F804C0C0EA0141C0EAFA
:104D6000034220464B46E047280721D506EB0B00BF
:104D70000AEB0702C0EA0601C0EA0240226828F0F6
:104D80007F49D2F804C000F5803220464B46E04708
:104D9000236806EB0A000BEB0702C0EA0601C0EA33
:104DA0000240D3F804C000F5803220464B46E0476D
:104DB00068075CBF01B0BDE8F08FA6EB0B000AEB03
:104DC0000702C0EA0601C0EA0240226828F07F48D4
:104DD000556800F5803220464346A8472368A6EB75
:104DE0000A000BEB0702C0EA0601C0EA0240D3F852
:104DF00004C000F580322046434601B0BDE8F04FC4
:104E0000604700002DE9F04F85B01746044608B210
:104E100012B23E14B0EB02084FEA2142A6EB214049
:104E2000D8BFA7EB0108B2EB274FC8BFA2EB2740C2
:104E300002044FEA114CB2EB084F4FEA17450292B9
:104E400008DD3A4666462F461546049040468C4695
:104E5000314601E0CDF810803AB20EB2964203908E
:104E600002DD8E46664603E0BE462E4665460F4688
:104E700029B232B24FF0FF368A420FFA8EF039B2C1
:104E8000C8BF0126814201902FDC4FEA0840009004
:104E9000049823F07F4A00B24FEA60092068009925
:104EA00003680298884207DD08F07F4000EB0A02A1
:104EB000C5EA0741904606E00BF07F4000EB0A028E
:104EC000C7EA05419346204698470398A9EB000995
:104ED0000FFA89F0002848BF3544049848BF814440
:104EE000781C07B201988742D8DD05B0BDE8F08F85
:104EF0002DE9F04704464FF6FF7021EA00095018EB
:104F0000A0F1010A2068CAEA0108D0F804C023F021
:104F10007F451746204642462B460E46E04707EBA4
:104F200009002168A0F58030C6EA0007D1F804C066
:104F3000CAEA0009204639464A462B46E04720681F
:104F40003146D0F804C020463A462B46E047206858
:104F50004146D0F804C020464A462B46BDE8F047FB
:104F600060472DE9F04F85B00E4691B204460E9889
:104F7000B1EB124F114628BF090CC1F34E05854213
:104F8000A8BF20EAE0757019D4F800C0C0EA060195
:104F900083460290501B3044DCF804C023F07F4865
:104FA0001746B14604901FFA80FAC0EA060220466E
:104FB00043466FF30F09E04738466FF30F00A0F543
:104FC000803045EA0001484400EB0A022068494469
:104FD000D0F804C0CBEA010120464346E0472068F0
:104FE000C5EB174205EB164A02EB164BD0F804C08E
:104FF000C6EA0A410392C6EA0B4220464346E0470E
:105000002268B81901385768C0EA0A41C0EA0B4261
:1050100020464346B847216845EA0540DDF808B018
:105020004844CF69CBEA00010126204642462B4680
:105030000096B84704982168013882B2CF6904927B
:10504000C0EA0A414FF0020C204642462B46CDF8FA
:1050500000C0B84700200399CFF6FF7000EB01476E
:10506000216847EA05004844CE69CBEA00014FF0C9
:10507000040C204642462B46CDF800C0B0472068BD
:1050800007EB0901C76904980826014420464246F7
:105090002B460096B84705B0BDE8F08F4FEAB10146
:1050A000042908D8DFE801F0030B0F13170000688C
:1050B0000068343012E0006800684C300EE0006890
:1050C000006838300AE0006800683C3006E000689C
:1050D0000068403002E000680068483002607047B5
:1050E00059B10A1F4FEAB202032A0FD8DFE802F0D3
:1050F0000211141700F13F0313E090F83E20012A3B
:1051000040F08680022280F83E2026E000F1430332
:1051100007E000F1400304E000F1410301E000F189
:1051200042031B78012B73D1032A07D8DFE802F072
:10513000020A0E12022280F83F200EE0022280F8BE
:1051400043200AE0022280F8402006E0022280F894
:10515000412002E0022280F842204FEAB102032AF5
:1051600056D800683BA353F82220C3681A43C26094
:1051700001F01F020121036A01FA02F29343036264
:10518000036A1343A0F18042A2F596324FEAB2229D
:10519000062A03623DD8914011F0650F39D0416C69
:1051A00042F6FF32C4F2010241F4004190424164F0
:1051B0000DDCB0F1804F1CD040F20041C4F2000180
:1051C000884216D040F60001C4F200010FE042F61A
:1051D0000041C4F2010188420BD044F20001C4F244
:1051E0000101884205D043F20041C4F20101884226
:1051F0000AD181680722C0F201021140062907D0B6
:10520000B1F5803F08BF7047016841F001010160BE
:10521000704742F6FF31C4F201018842C9DD43F60E
:10522000FF71C4F20101884202DC42F60041D6E778
:1052300044F20001C4F201018842DAD044F60001D0
:10524000C4F20101884202BF416C41F40041416453
:10525000DAE700BF020000000400000008000000C0
:105260001000000080B54FEAB10EBEF1030F88BFF9
:1052700080BD03680FF2BC0C5CF82EC0DA6801F048
:105280001F0102EA0C02DA604FF0010C1A6A0CFAF4
:1052900001F122EA01011962A3F18041A1F59631E1
:1052A0001A6A4FEAB12106291A6213D80CFA01F1E1
:1052B00011F0650F0ED0196A41F2111211420FD18F
:1052C000196A44F2444211420AD1596C21F4004156
:1052D000596405E044F60001C4F201018B42EAD0B2
:1052E000196A41F21112114208D1196A44F244427A
:1052F000114203D1196821F001011960BEF1030FB9
:1053000007D8DFE80EF0020A0E12012180F83E10E5
:1053100080BD012180F8431080BD012180F83F103D
:1053200080BD012180F8401080BD012180F841102E
:1053300080BD00BFFDFFFFFFFBFFFFFFF7FFFFFF8B
:10534000EFFFFFFF70B546F66463C2F200031B680F
:10535000846D436594F85C00012876D0012084F8C0
:105360005C0094F85D0001286CD100296AD010041B
:1053700068D00320002384F85D002366A163A28720
:10538000E2872364C4E91333A4F84430A4F8463018
:10539000A0682268B0F5004F07D1106820F04000E7
:1053A0001060106840F480401060606D42F2B91ED9
:1053B00042F2BD1542F26516C0F6000EC0F60005B9
:1053C000C0F60006C0E90B5EC0E90D63D4F80CC05E
:1053D0005368BCF5E06F23F48043536015D88369AC
:1053E000B3F5806F11D1E68F5368F60705D123F42A
:1053F00080435360E38F5B0806E043F480435360CF
:10540000E38F012606EB5303E387E38F0C32FBF7B0
:1054100019FB38B1206E40F010002066012084F89E
:105420005D000FE020680168490603D4016841F07F
:1054300040010160416841F020014160416841F054
:1054400002014160002084F85C000120BDE870404A
:1054500001F006B910B50446C06941F211130068A5
:1054600000680168CA6822F00102CA600A6A1A422A
:1054700008D10A6A44F244431A4203D10A6822F06E
:1054800001020A60012180F83D10E069D0E90021A5
:105490001068FFF7E7FEA169086849680068BDE881
:1054A0001040FFF7DFBE00002DE9F041044602681E
:1054B0008068E16900EB400732F82730086802EBAA
:1054C000870873B1006840F200060268C2F2000665
:1054D0003568966A0136B5FBF6F79F4211D2002374
:1054E00013E0006840F200030268C2F200031B6888
:1054F000966A751CB3FBF5F6B6F57A7F49D20023A0
:105500004DE07343B5FBF3F3013BD362C360D06A54
:10551000421CD1E900015208FFF7C0FDB8F80000B5
:10552000B8F8021098ED010A484344F6D351C1F28D
:105530006201A0FB01018809B5EE400AB0EE402AE5
:10554000C4E903009FED211AF1EE10FAB8BFB0EEE6
:10555000412AA169B7EE001A0868B4EE410A006852
:1055600049680268F1EE10FA92ED0B1AD8BFB0EE5E
:10557000420AB8EE411A94ED0C2A20EE010A22EEFE
:10558000000ABCEEC00A84ED050ABDE8F041FFF751
:10559000A7BD4FF47A766E43B3FBF6F3013BD362BB
:1055A000C3600868496802681268D26A0132FFF76E
:1055B00075FDA169B8F80220086849680068E260D2
:1055C0002261BDE8F041FFF74DBE00BF00000000C2
:1055D00070B582B0044640688DF80710806DA168F0
:1055E00000680725466865F30B264660A0891646C5
:1055F000886260680DF1070101221D46FFF7A2FED7
:105600003EB1A068A1893246816160682946FFF7F2
:1056100099FE02B070BD2DE9F04383B00D460446FB
:10562000100C91B2414360689846006D17462E0CED
:105630004FEA410900F088F806EB1740691C7A1917
:105640001A2300F11907080A03EB15468DF8070025
:10565000100A0DF107058DF808108DF809008DF876
:105660000A2020462A2104222B46FFF7B1FF300AE8
:105670008DF80700380A8DF8090020462B210422F6
:105680002B468DF808608DF80A70FFF7A1FF60685F
:105690002C21806D8DF80B100068A16842680723EB
:1056A00063F30B224260A0890122886260680DF1D9
:1056B0000B01FFF747FEA068A18981616068816DD9
:1056C00009684A6842F470624A6041464A46FFF7F8
:1056D00039FE6068006D01F0E5F903B0BDE8F083C4
:1056E00070B581B040F2182CC2F2000CDCF85C50AE
:1056F000854226D98DF80210DCF8581000EB4000E6
:105700008DF8033001EB001000210DF1010E0CF1BA
:1057100062038DF8012000BF1EF8012080240025BF
:105720001E46144208BF0CF160063688640820F853
:1057300015600135082DF3D10131032900F1100066
:10574000EAD101B070BD00002DE9F04F89B00446E8
:105750004FF0FF30089054B1206C90B14FF05000E2
:1057600080F31188BFF36F8FBFF34F8FFEE74FF0C9
:10577000500080F31188BFF36F8FBFF34F8F00BFCE
:10578000FEE747F2B420C2F20000006846F6147A41
:10579000C2F2000A58B1DAF8000040B14FF05000F0
:1057A00080F31188BFF36F8FBFF34F8FFEE704F1D3
:1057B00024004EF60459049040F2100547F2E02808
:1057C0000020CEF200094FF0000BC2F20005C2F239
:1057D000000806AE08AF0590012000BF4FF0500151
:1057E00081F31188BFF36F8FBFF34F8F29684A1C75
:1057F0002A6021B9D9F800301B0640F0C181A36BA3
:10580000002B40F05C81089B002B00F07781C007E3
:1058100008D047F29820C2F2000000680690D8F83D
:1058200000000790002A00F07281296009B98BF30B
:105830001188DAF800000130CAF800004FF050007B
:1058400080F31188BFF36F8FBFF34F8F2868411C1F
:10585000296020B9D9F80020120640F09A8194F806
:105860004420FF2A08BF84F844B094F84520FF2A5A
:1058700008BF84F845B0002900F05381286008B9BA
:105880008BF311883046394601F002FBE0B1204627
:1058900000F032FE01F0ACFD4FF0500080F31188B3
:1058A000BFF36F8FBFF34F8F2868421C2A6020B36D
:1058B000A16B002A00F07781286000294FF00000DA
:1058C0007FF48CAF41E100BF4FF0500080F31188AE
:1058D000BFF36F8FBFF34F8F2868411C2960D0B191
:1058E000A26B002900F069812860FAB1204600F01F
:1058F00003FE01F07DFD002070E7D9F800100906D5
:1059000040F06581A16B2860002080F31188002998
:105910007FF464AF19E1D9F80010090640F06F81F7
:10592000A16B28608BF311880029DFD12068002843
:1059300040F0AD804FF0500080F31188BFF36F8FBF
:10594000BFF34F8F286800F1010EC5F800E020B9C1
:10595000D9F80010090640F0E081A26846F66463B9
:10596000C2F2000322B3D2F82CC01968C96A8C4570
:1059700020D29169CDE9020E002904D41968C96AC0
:10598000C1F10701916146F6706E51690CEB8C0311
:10599000C2F2000E0EEB8303994215D046F6646105
:1059A000C2F200010968C96AD1620121059164E06F
:1059B000002107E0D16C1A68D26A91424FF00001D1
:1059C00038BF012105915AE09368D2F80CE00093AA
:1059D000C3F808E04B68101D0593DDF814E0D368A8
:1059E000019086450098586008BF4B600B68013BEA
:1059F0000B60096859B946F61C7EC2F2000EDEF84B
:105A00000010012303FA0CF39943CEF8001046F678
:105A10006461C2F20001096846F61C7EC96AC2F2DE
:105A2000000ED1620120DEF800C00123059300FAC8
:105A300001F343EA0C03CEF8003046F6706301EB45
:105A40008101C2F2000303EB810EDEF804300198FD
:105A5000D3F808C09360C2F80CC0D3F808C09860AF
:105A6000CCF8040046F67060C2F814E0C2F2000000
:105A700050F82120013240F82120DDE9020EBEF16C
:105A8000000F00F04081286008B98BF31188089955
:105A9000049800F08FFE204600F02EFD01F0A8FCD7
:105AA00000284FF000007FF499AE4FF08050C9F805
:105AB0000000BFF34F8FBFF36F8F00208EE6581E9C
:105AC000A063206858B946F66462C2F2000210680A
:105AD00018B11068016D013101651068A06020697E
