:020000040800F2
:10000000E87E002085020008E91A0008E11A0008CD
:10001000E51A000839080008352200080000000031
:10002000000000000000000000000000211E000889
:100030007908000800000000F11A0008451E0008B9
:100040009F0200089F0200089F0200089F0200080C
:100050009F0200089F0200089F0200089F020008FC
:100060009D0800089F0200089F0200089F020008E8
:100070003D08000849080008550800089F020008CC
:1000800061080008000000009F0200089F020008AD
:100090009F0200089F0200089F0200089F020008BC
:1000A0009F0200089F0200089F0200089F020008AC
:1000B0009F020008891E00089F0200089F02000896
:1000C0009F0200089F0200089F0200089F0200088C
:1000D0009F0200089F0200089F0200089F0200087C
:1000E0007D0800089F0200089F0200089F02000888
:1000F0009F0200089F0200089F0200080000000005
:10010000000000009F020008000000009F0200089D
:100110009F02000800000000951E00089F020008D2
:100120006D0800089F0200089F0200089F02000857
:100130009F02000800000000000000009F0200086D
:100140009F0200089F02000800000000000000005D
:10015000000000000000000000000000000000009F
:100160000000000000000000000000009F020008E6
:100170009F020008000000000000000000000000D6
:10018000000000009F0200080000000000000000C6
:10019000000000000000000000000000000000005F
:1001A00000000000000000009F0200089F020008FD
:1001B0009F0200089F0200089F0200080000000044
:1001C000000000009F020008000000000000000086
:1001D0009F0200089F02000800F002F800F042F8B9
:1001E0000AA090E8000C82448344AAF10107DA4592
:1001F00001D100F037F8AFF2090EBAE80F0013F0A2
:10020000010F18BFFB1A43F001031847E88A0000EA
:10021000088B0000103A24BF78C878C1FAD852077A
:1002200024BF30C830C144BF04680C607047000070
:100230000023002400250026103A28BF78C1FBD8EF
:10024000520728BF30C148BF0B6070471FB507F089
:10025000C4FD9DE8030000F0ABF800F0DBFA1FBD21
:1002600010B510BD00F038F91146FFF7EFFF06F0AA
:10027000B9FA00F056F903B4FFF7F2FF03BC00F03F
:10028000FFF800000948804709480047FEE7FEE7FD
:10029000FEE7FEE7FEE7FEE7FEE7FEE7FEE7FEE736
:1002A00004480549054A064B70470000751E0008C2
:1002B000D9010008E8720020E87E0020E87A0020DA
:1002C000E87A002070B5064600F056F8056806F199
:1002D0000B0020F00704B4429CBF002070BD2B46E9
:1002E0006A68BAB11068A04210D304F108018842CC
:1002F0003CBF5068586007D35168101941601168BD
:10030000091B016058601460101D70BD13465268CF
:10031000002AE7D12146284600F036F80028DED131
:1003200070BD70B50446051F00F026F80068002C6B
:1003300014BF446870BD002C18BFAC423CBF2046BF
:100340006468F8D301680A18AA4218BF456003D14F
:100350002A6805461144016028684119A1421CBF62
:100360006C6070BD6168696021680844286070BD78
:100370007047704770470000004870472000002019
:10038000704770477047704738B504460A460020EA
:100390006946AFF30080002808BF38BD02460099C7
:1003A000204600F077F8012038BD012000F08CB81D
:1003B000F8B5AFF30080054600200C46102000BFC2
:1003C0000646A819A0420DD9324669460020AFF36F
:1003D0000080070008BF00F077F80098A04218BF1F
:1003E0000546C419FFF7C8FF05600746F01D20F059
:1003F00007004619284600F00AF8B44208BFF8BDC5
:10040000A21B31463868BDE8F84000F043B800212F
:100410000160C0E9011070471020704710B5203A04
:10042000C0F00B80B1E81850A0E81850B1E818509F
:10043000A0E81850203ABFF4F5AF5FEA027C24BF71
:10044000B1E81850A0E8185044BF18C918C0BDE85A
:1004500010405FEA827C24BF51F8043B40F8043B23
:1004600008BF7047D20728BF31F8023B48BF11F8D8
:10047000012B28BF20F8023B48BF00F8012B704732
:1004800001491820ABBEFEE7260002000048704775
:1004900018000020034640688C46002818BF884298
:1004A0003CBF03464068F8D318681844884207D018
:1004B0000CF1030020F00700001D411A521A0146FA
:1004C000081D0A60FFF72DBF10B500F039F8BDE830
:1004D000104000F02FB870477546FFF7D7FFAE46C3
:1004E00005006946534620F00700854618B020B540
:1004F000FFF7D6FEBDE820404FF000064FF00007A2
:100500004FF000084FF0000BAC46ACE8C009ACE877
:10051000C009ACE8C009ACE8C00921F007018D466C
:10052000704710B50446AFF300802046BDE8104088
:10053000FFF7A1BE002801D0FFF7A2BF704700005F
:1005400010B5012805D0002103A000F021F80120FA
:1005500010BD09A1F8E7000053494752544D454DDD
:100560003A204F7574206F662068656170206D6554
:100570006D6F7279000000003A2048656170206D4F
:10058000656D6F727920636F727275707465640047
:1005900070B505460C460A2000E06D1C00F011F80D
:1005A00035B128780028F8D102E0641C00F009F881
:1005B00014B120780028F8D1BDE870400A20AFF3CC
:1005C000008008B569468DF800000320ABBE08BD69
:1005D00070B5A0FB0140B4F1805170F1000024BF60
:1005E000002070BD2046FFF76DFE05001CBF2146B0
:1005F00000F0C7F8284670BD53EA020C00F069808D
:100600002DE9F04B4FF00006002B1FBFB3FA83F526
:1006100003FA05F424FA05F65E4012BF1643B2FA57
:1006200082F502FA05F4C5F120051EBF22FA05FC89
:1006300044EA0C04203556EA044C4FEA144418BF2F
:10064000641C4FF000084FF00009904271EB030C5E
:1006500039D3002919BFB1FA81F701FA07F6B0FAC8
:1006600080F700FA07F6C7F120071EBF20FA07FC43
:1006700046EA0C062037B6FBF4FCA7EB0507103F53
:1006800007F01F0BCBF120062CFA06F60CFA0BFB39
:1006900044BFB3460026202FA4BF5E464FF0000B98
:1006A0005BEA060C08BF4FF0010B19EB0B0948EB96
:1006B0000608ABFB027C06FB02CC0BFB03CCC01B89
:1006C00071EB0C01C1E70B46024641464846BDE8C6
:1006D000F08B13B5084318BF4FF0FF300146AFF35E
:1006E0000080BDE81C407047032A40F2308010F0C3
:1006F000030C00F0158011F8013BBCF1020F6244BD
:1007000098BF11F801CB00F8013B38BF11F8013B4D
:10071000A2F1040298BF00F801CB38BF00F8013BFA
:1007200011F003033FF47AAE083AC0F0088051F8A4
:10073000043B083A51F804CBA0E80810F5E7121D75
:100740005CBF51F8043B40F8043BAFF30080D20794
:1007500024BF11F8013B11F801CB48BF11F8012B60
:1007600024BF00F8013B00F801CB48BF00F8012B83
:10077000704702F0FF0343EA032242EA024200F01C
:1007800024B84FF000020429C0F0128010F0030CCE
:1007900000F01B80CCF1040CBCF1020F18BF00F874
:1007A000012BA8BF20F8022BA1EB0C0100F00DB823
:1007B0005FEAC17C24BF00F8012B00F8012B48BF81
:1007C00000F8012B70474FF0000200B51346944625
:1007D0009646203922BFA0E80C50A0E80C50B1F199
:1007E0002001BFF4F7AF090728BFA0E80C5048BFAD
:1007F0000CC05DF804EB890028BF40F8042B08BF4B
:10080000704748BF20F8022B11F0804F18BF00F846
:10081000012B704770B5064C7C44064D7D4404E0C6
:100820002046016808448047241DAC42F8D170BDC1
:10083000F884000000850000FEE7000046F29460A6
:10084000C2F2000000F02EB846F2F460C2F20000DE
:1008500000F028B846F25470C2F2000000F022B84E
:1008600046F61400C2F2000000F01CB846F2B47064
:10087000C2F2000000F016B87047000080B54FF4D7
:10088000806000F069F94FF4804000F065F94FF4A2
:100890000040BDE8804000F05FB90000042000F097
:1008A0005BB90000B0B5D0E910C30268DCF80010F5
:1008B00003F01F030424D2F800E09C400C4218BF50
:1008C0001EF0040521D102249C400C4218BF1EF0EA
:1008D000020527D1D940090723D51EF0080108BF1A
:1008E000B0BD116821F00E011160012101FA03F27F
:1008F000CCF80420C16380F82510416B002280F8F9
:10090000242071B1BDE8B04008471168890603D4BE
:10091000116821F004011160CCF80440016B00293A
:10092000F0D1B0BD1168890606D4116821F00A0122
:100930001160012180F82510CCF80440C16A002222
:10094000002980F82420DDD1EBE7000000284FF0DB
:10095000010100F08C802DE9F04740F2000CC4F258
:10096000020C03684FF6F8320CF5816ECBF6FD727F
:10097000734538BF02F580624CF6CD441A44CCF67C
:10098000CC44A2FB042803F0FC02A2F10802A2FB63
:1009900004290CF580656FF00304D0E90262D0F8F9
:1009A00010A03CBF0025C4F2020504EA9804C0E987
:1009B0001054022580F825501D6847F6F07725EA87
:1009C00007073A43476942EA0A0285693A43C76919
:1009D0002A43056A3A432A4332431A600CF50262FD
:1009E000734538BF0CF50062A3180CF50862C264A9
:1009F000C9F3041240F6840C01FA02F2B6F5804FF6
:100A0000C4F2020C8364026505D1002141601960C3
:100A1000CCF800201CE041685FFA81FE013903290F
:100A20004FF00001C3F800E0CCF8002010D8AEF180
:100A300001020CEB820747F87C1F02F01F01012224
:100A400002FA01F30CF1BC023946CCF8C03001E0E7
:100A50000022002300F1540C8CE80E00002101223A
:100A6000C16380F8252080F82410BDE8F0470846CF
:100A7000704700002DE9F04190F824C0BCF1010F4F
:100A800043D04FF0010C80F824C090F825C0BCF191
:100A9000010F37D14FF0020C80F825C04FF0000C49
:100AA000C0F83CC0D0F800C000F14C0E9EE83040C9
:100AB000DCF80060BEF1000F26F00106CCF8006003
:100AC00065601CBFD0E916456560D0E91076012548
:100AD00006F01F068468B540D0F830807D60CCF801
:100AE00004300B46102C04BF13460A46CCF80830DD
:100AF000CCF80C20DCF80010B8F1000F08D041F061
:100B00000E010DE0002180F824100220BDE8F081E4
:100B100021F00401CCF80010DCF8001041F00A01CB
:100B2000CCF80010806C0168C90303D5016841F45A
:100B300080710160BEF1000F05D0DEF8000040F4C6
:100B40008070CEF80000DCF8000040F00100CCF826
:100B500000000020BDE8F081B0B540F21441C4F2BD
:100B600001010A68024208BFB0BD40F2E01508600A
:100B7000C2F20005002040F20401C2F2000101228D
:100B8000A8602846C5E9001204F072FBD5E90242CC
:100B90002B6804EB440403EB8403D5E904109B6841
:100BA0009847A869D0E90021106804F0A3F9E86922
:100BB0000068006890F83D1001293DD1022180F8BD
:100BC0003D10006842F6FF32C168C4F20102904253
:100BD00041F00101C1600FDCB0F1804F1ED040F246
:100BE0000041C4F20001884218D040F60001C4F26E
:100BF0000001884212D01BE042F60041C4F201011C
:100C000088420BD044F20001C4F20101884205D0B1
:100C100043F20041C4F20101884209D181680722F0
:100C2000C0F201021140062906D0B1F5803F03D081
:100C3000016841F001010160E969086849680068DC
:100C4000BDE8B04004F056B92DE9F04F82B00C6811
:100C5000002C00F0C88041F2004500F13847C4F68E
:100C6000000506224FEAB726A84208BF0522052E36
:100C700038BF4FEAB722012700254FF0000E0126AA
:100C800000920AE00C680EF1040E34FA06F206F146
:100C9000010605F1020500F0A680A6F1010907FA98
:100CA00009FB14EA0B08EDD0D1F804C003230CF0C3
:100CB0000304621EAB40012A6FEA030A10D882685F
:100CC000CB6802EA0A02AB401A4382604268CCF366
:100CD000001322EA0B0203FA09F31A43426003E00D
:100CE000032C01D103241FE0C2688B6802EA0A02C8
:100CF000AB401A43022CC26016D16FF0030202EA25
:100D0000590202440EF01C040F23D2F820C003FA4B
:100D100004FB0B692CEA0B0CA34043EA0C0313629F
:100D2000D1F804C00CF00304026804FA05F302EAE7
:100D30000A021A431CF4403F0260A3D041F2600350
:100D4000C4F202031A684FF6084A42F001021A6020
:100D50001A68CFF6FF7A02F001020192019A29F097
:100D6000030240F20049C4F201094A4452F80AC0A1
:100D70000EF00C040F23009FA3402CEA030307FA94
:100D800004F4234342F80A30D9F808C04B684CEA0F
:100D90000804DA0258BF2CEA080440F20C4CC9F8E7
:100DA0000840C4F2010CDCF800209F0242EA08046B
:100DB00058BF22EA0804CCF80040D9F804209C036C
:100DC00042EA080758BF22EA0807C9F80470D9F8B0
:100DD0000020DB0342EA080758BF22EA0807C9F8E7
:100DE000007001274EE702B0BDE8F08FB0B582B0C9
:100DF00041F20801C4F202010A6D48F6E04342F0F4
:100E000010020A650A6DC0F6000302F0100201929A
:100E1000019A0A680A680A680A6842F20002C4F283
:100E20000202126840F20002C2F20002126809686F
:100E30000446C1F30221595C4FF0FF3001F01F015D
:100E400022FA01F14DF68362C4F21B32A1FB0212B9
:100E500046F6885541F2000100EB9240C2F20005CF
:100E6000C4F2000140F2E7320023C5E90010284631
:100E7000C5E902322B6100F02BFB08BB95F83D0061
:100E800001281DD1022085F83D00286842F6FF3276
:100E9000C168C4F20102904241F00101C16012DC5C
:100EA000B0F1804F21D040F20041C4F200018842ED
:100EB0001BD040F60001C4F20001884215D01EE0AC
:100EC000012002B0B0BD42F60041C4F201018842E7
:100ED0000BD044F20001C4F20101884205D043F274
:100EE0000041C4F20101884209D181680722C0F2A1
:100EF00001021140062906D0B1F5803F03D00168F8
:100F000041F0010101604EF20410CEF200004FF4F6
:100F1000800101600F2C4FF0010022D84EF60C51D9
:100F2000CEF2000109680023C1F3022181F007021B
:100F3000042A28BF0422033938BF19464FF0FF3373
:100F400003FA02F2D24302FA01F14EF236420901EB
:100F5000CEF20002117046F60871C2F2000108706C
:100F6000002002B0B0BD0000F0B581B0036841F2CE
:100F700088021903C4F2020256D44FF0000ED907BA
:100F800000F0BB801168476821F00301394311600C
:100F9000990740F1B5801168876821F00C01394349
:100FA0001160590740F1AF801168C76821F0300126
:100FB00039431160190740F1A9801168076921F0D0
:100FC000C00139431160990640F1A3801168476957
:100FD00021F4406139431160590640F19D80116848
:100FE000876921F4405139431160190640F1978017
:100FF0001168C76921F4404139431160D90540F1B6
:1010000091801168076A21F44031394311609905D4
:1010100040F18B801168476A21F440213943116007
:10102000590540F1938082E052F8301C11F0805C49
:101030000BD152F8301C41F0805142F8301C52F86C
:10104000301C01F080510091009947F20004C4F275
:101050000004216841F48071216046F60471C2F2F7
:1010600000010E682568ED051BD40D68AD1B022D2F
:1010700014D82568ED0514D40D68AD1B022D0DD8CC
:101080002568ED050DD40D68AD1B022D06D8256829
:10109000ED0506D40D68AD1B022DE3D94FF0030E0C
:1010A0001CE09668076C16F4407610D0BE420BD058
:1010B0009668956826F4407645F480359560956885
:1010C00025F4803595609660F60740F0978091682A
:1010D0004FF0000E21F4407139439160BCF1000FD4
:1010E00008D152F8301C21F0805142F8301CD90749
:1010F00003D047E7D9077FF445AF99073FF54BAFDA
:1011000059073FF551AF19073FF557AF99063FF51E
:101110005DAF59063FF563AF19063FF569AFD905D5
:101120003FF56FAF99053FF575AF59050ED51168BD
:10113000876A21F440113943B7F5801F116005D14A
:1011400052F87C1C41F4801142F87C1C19050ED524
:101150001168C76A21F440013943B7F5800F116067
:1011600005D152F87C1C41F4801142F87C1CD90452
:101170000ED51168076B21F040713943B7F1807FBC
:10118000116005D152F87C1C41F4801142F87C1C9E
:1011900099040ED51168476B21F040613943B7F1CE
:1011A000006F116005D152F87C1C41F4801142F8A7
:1011B0007C1C59040ED51168876B21F040613943BE
:1011C000B7F1006F116005D152F87C1C41F4801119
:1011D00042F87C1C19040ED51168C06B21F04051F7
:1011E0000143B0F1805F116005D152F87C0C40F4EE
:1011F000803042F87C0C704601B0F0BD0D6841F2C1
:1012000088364FF0030E9468A4073FF560AF0C6872
:10121000641BB4423FF642AF9468A4073FF557AF52
:101220000C68641BB4423FF639AF9468A4073FF5DD
:101230004EAF0C68641BB4423FF630AF9468A4070D
:101240003FF545AF0C68641BB442DCD946E70000AB
:10125000002804BF012070472DE9F04F87B00446F5
:10126000406A20B10020206104F1140005E06068AC
:10127000B0F5827F03D004F11C000021016000273B
:10128000A76294F85D00002840F0D180206843F602
:101290000041C4F20001884284F85C70CDE9057712
:1012A000CDE9037702973CD043F60001C4F2000178
:1012B000884240F0BC8041F24C00C4F20200C16898
:1012C000002641F48041C160C16801F48041019170
:1012D0000199016841F002010160006802A900F073
:1012E0000200019001984FF43040029002200390D8
:1012F000032005900520069040F20040C4F600004F
:101300000496FFF7A1FC46F294651C20C2F200058A
:10131000C4F2020080230D21102285E847002B61D2
:101320007CE041F24C00C4F20200C16802AD41F41D
:101330000041C160C1684FF0020901F40041019110
:1013400001990168002641F00101016001684FF038
:10135000030A01F001010191019901684FF0060BA8
:1013600041F004010160016801F00401019101995B
:10137000016841F0020101600068294600F00200A6
:10138000019001984FF4004002904FF09040CDF84A
:101390000C900496CDF814A0CDF818B0FFF754FCCB
:1013A0004FF4406040F20048CDE9020904A8C4F6B9
:1013B000000880E8400C08F580602946FFF744FCEF
:1013C0002020CDE9020904A880E8400C40462946C7
:1013D000FFF73AFC40F21C08C4F2020846F2F4653A
:1013E00008F11400C2F200050E214FF0800985E8D3
:1013F00043002846C5E90369C5E90566C5E90766EE
:10140000FFF7A4FAA565AC6246F2547508F128000E
:10141000C2F200050F21102285E8470228466E61BE
:10142000AE61EE612E62FFF791FA6565AC62022053
:1014300084F85D002068E1680268B1F5E06F22F091
:101440004002026041F4006298BF0127B2F5706F5C
:101450001CBF0023A3623A03D4E90137D4E9046531
:1014600003F4827307F404473B4406F00207A669BD
:101470003B4405F00107E5693B4406F400773B4433
:1014800005F03807256A3B4405F08007A56A3B4410
:1014900005F400573B4303600423676A01F470615D
:1014A00003EA1643666B114307F01007194306F071
:1014B0000806394331434160C16921F40061C161CB
:1014C00000200121206684F85D1007B0BDE8F08F90
:1014D000002804BF0120704770B582B0044690F820
:1014E0003D0010B3022084F83D002068211D00F06B
:1014F000D7FC012084F8480084F83E0084F83F00BF
:1015000084F8400084F8410084F8420084F84300E5
:1015100084F8440084F8450084F8460084F84700C5
:1015200084F83D00002002B070BD206843F6FF72D1
:10153000C4F201020021904284F83C103CDCB0F17E
:10154000804F51D040F20041C4F200018842C9D11D
:1015500041F25800C4F2020001684FF0FF3241F03E
:1015600002010160006800F00200019001984EF64F
:101570000C50CEF200000068C0F3022080F007019A
:10158000042928BF0421033802FA01F14FF00502B3
:1015900038BF002022EA010101FA00F04EF21D419D
:1015A0000001CEF2000108704EF20010CEF20000F1
:1015B0004FF00051016095E744F20001C4F20101CF
:1015C000884238D044F60001C4F20101884289D132
:1015D00041F26000C4F20200016841F48021016020
:1015E000006800F4802031E041F25800C4F20200AB
:1015F000016846F2B47541F0010101600168A0F58F
:10160000456001F0010101910199C2F20005392103
:10161000102200234FF0800C4FF4007E4FF48066C0
:1016200085E80F502846C5E906632B62FFF78EF95F
:10163000A562AC6256E741F26000C4F202000168A4
:1016400041F480310160006800F48030019001981D
:1016500048E7000080B590F83C20012A4FF00202D4
:1016600000F0A58080F83D20D0F800C08822DCF88A
:101670000830CFF6CE721A40CCF808200B686F2BDA
:101680000FDD1F22C0F21002934235DCB3F5005F7C
:1016900044DA702B00F08D80B3F5805F00F080801D
:1016A000CFE02F2B34DD4F2B3DDC302B6CD0402B8B
:1016B00040F0C780D1F804E0C968DCF82030DCF8DD
:1016C000202022F00102CCF82020DCF8182022F0A3
:1016D000F00242EA011123F00A0242EA0E02CCF8BB
:1016E0001810CCF82020DCF808104FF68872CFF6DE
:1016F000CF721140473151E03F21C0F210018B42BF
:1017000038DC2021C0F210018B423DD0302137E07F
:10171000D3B3102B38D0202B36D092E05CD0B3F16D
:10172000101F31D08DE0502B69D0602B40F08980A4
:10173000D1F804E0C968DCF8203023F01003CCF8BD
:101740002030DCF81830DCF8202023F4704322F03D
:10175000A00243EA013142EA0E12CCF81810CCF88C
:101760002020DCF808104FF68872CFF6CF721140B7
:10177000673113E04021C0F210018B4204D0702188
:10178000C0F210018B425CD1DCF808104FF6887271
:10179000CFF6CF721140194341F00701CCF8081081
:1017A0000022012180F83D10002180F83C101046F5
:1017B00080BDD1E901E3C968DCF8082043EA0E03E3
:1017C00022F47F4243EA01211143CCF80810DCF8EF
:1017D000081041F07701E1E7D1E901E3C968DCF8DD
:1017E000082043EA0E0322F47F4243EA0121114319
:1017F000CCF80810DCF8081041F48041CEE7D1F8AD
:1018000004E0C968DCF82030DCF8202022F0010276
:10181000CCF82020DCF8182022F0F00242EA011176
:1018200023F00A0242EA0E02CCF81810CCF820206D
:10183000DCF808104FF68872CFF6CF72114057319E
:10184000ACE70122ADE70000B0B5044600680169CD
:10185000890744BFC1685FEA817164D4016949079F
:1018600044BFC1685FEA417169D40169090744BF97
:10187000C1685FEA01716FD40169C90644BFC168DC
:101880005FEAC16174D40169C9071CBFC1685FEA1E
:10189000C1717AD10169090641BFC1685FEA01617E
:1018A0006FF0800101610169C90541BFC1685FEA4C
:1018B00001616FF4807101610169490641BFC1682E
:1018C0005FEA41616FF0400101610169890641BF32
:1018D000C1685FEA81616FF0200101610169C9029D
:1018E00041BFC1685FEAC1216FF4801101610169E4
:1018F000890241BFC1685FEA81216FF40011016173
:101900000169490241BFC1685FEA41216FF480016A
:1019100001610169090241BFC1685FEA01216FF4F9
:1019200000010161B0BD6FF0020101610121217769
:101930008069800747D02068002121778EE76FF00B
:101940000401016102212177806910F4407F51D0A8
:1019500020680021217788E76FF0080101610421E8
:101960002177C06980075CD020680021217783E758
:101970006FF01001016108212177C06910F4407FE8
:1019800067D02068002121777DE76FF001010161B8
:10199000206841F20001C4F20001884272D046F68C
:1019A0003C55C2F20005AC427FF474AF40F2001126
:1019B000C2F20001496800293FF46CAFD1E9002070
:1019C0009047286866E746F6F040C2F2000084427D
:1019D00061D046F63C50C2F200008442ABD140F2E6
:1019E0007810C2F2000080680028A4D0D0E900106E
:1019F0008847A0E746F6F040C2F20000844253D088
:101A000046F63C50C2F200008442A1D140F2781068
:101A1000C2F20000806800289AD0D0E90010884700
:101A200096E746F6F040C2F20000844245D046F602
:101A30003C50C2F20000844296D140F27810C2F2CB
:101A40000000806800283FF48FAFD0E9001088477D
:101A50008AE746F6F040C2F20000844236D046F6ED
:101A60003C50C2F2000084427FF48BAF40F2781009
:101A7000C2F20000806800283FF483AFD0E9001074
:101A800088477EE746F60470C2F200000268013221
:101A900002600846FEE640F20810C2F20000006E46
:101AA000012105F025FE46E740F20810C2F20000D1
:101AB000006E012105F01CFE4AE740F20810C2F258
:101AC0000000006E012105F013FE4DE740F2081002
:101AD000C2F20000006E012105F00AFE51E700008D
:101AE000FEE70000FEE70000FEE700000000000047
:101AF000EFF30980BFF36F8F154B1A681EF0100FBC
:101B000008BF20ED108A20E9F04F10602DE9090090
:101B10004FF0500080F31188BFF34F8FBFF36F8FEA
:101B200005F0C2FC4FF0000080F31188BDE8090009
:101B300019680868B0E8F04F1EF0100F08BFB0EC4D
:101B4000108A80F30988BFF36F8F704700BF00BF12
:101B5000646E0020806A01684A6822F003024A60CD
:101B6000016E41F01001016646F69031C2F20001AB
:101B700088424FF0010180F85D100CD046F6F43138
:101B8000C2F20001884218BF704740F28410C2F2CE
:101B90000000543004E040F29400C2F200005430DF
:101BA0000068002105F0A4BD70470000F0B583B0C7
:101BB000016846F60476C2F20006846A376808684F
:101BC000800600F18B8020683A46416821F02001B0
:101BD0004160416821F00201416020464FF4C0514C
:101BE00000F0A4F800284DD140F200023068C2F2A3
:101BF000000231681368381A00F16402C3F3CB3075
:101C000050430290206883681B060ED533685B1A28
:101C1000934212D2029B029D002BA5F10105029571
:101C2000856808BF1A462B06F0D420464FF4C061E1
:101C30003A4600F07BF828BB2CE0416821F0E00137
:101C400041606168B1F5827F0AD1A168B1F5004FAA
:101C500002D0B1F5806F03D1016821F0400101602D
:101C6000A16AB1F5005F07D1016821F4005101605C
:101C7000016841F400510160012084F85D000020FA
:101C800084F85C00206E40F020002066206E40F05A
:101C900020002066A06838B9002001902068C16843
:101CA00001918068019001980020E087012084F86C
:101CB0005D00206E90B146F69030C2F20000844282
:101CC00028D046F6F430C2F20000844212D140F22D
:101CD0008410C2F200005430002121E046F690301A
:101CE000C2F20000844207D046F6F430C2F200008F
:101CF000844208D003B0F0BD40F29400C2F200006C
:101D0000543001210CE040F28410C2F20000543043
:101D1000012105E040F29400C2F20000543000219D
:101D2000006803B0BDE8F04005F0E2BC70B582B0D9
:101D30004FF0000C46F6047E40F200058DF803C01B
:101D4000C2F2000EC2F20005DEF80030DEF80040FC
:101D50002D682326D21A754302F164032D0D026803
:101D60005D43019595680D4256D0B1F5C06F19D10C
:101D7000117B8DF803109DF80310DEF80010091B8D
:101D8000994222D20199019E0029A6F101060196ED
:101D9000966808BF0B4616F4C06FE9D14FF0000CEF
:101DA0003AE000BFDEF80060361B9E420DD2019E75
:101DB000019D002EA5F101050195956808BF3346E8
:101DC0000D42EFD14FF0000C26E0516821F0E00108
:101DD00051604168B1F5827F0AD18168B1F5004F49
:101DE00002D0B1F5806F03D1116821F0400111607C
:101DF000816AB1F5005F07D1116821F400511160CB
:101E0000116841F400511160012180F85D1000213A
:101E100080F85C104FF0030C604602B070BD00000B
:101E2000074B19680868B0E8F04F80F30988BFF3E2
:101E30006F8F4FF0000080F31188704700BF00BF24
:101E4000646E002080B54FF0500080F31188BFF31E
:101E50006F8FBFF34F8F05F001FD30B14EF6045088
:101E6000CEF200004FF080510160002080F3118815
:101E700080BD00004EF68850CEF20000016841F4AB
:101E8000700101607047000046F63C50C2F200004D
:101E9000FFF7DABC46F68850C2F20000FFF7D4BC68
:101EA00080B540F2FF7C0268C4F2000C604512DD90
:101EB00040F60003C4F20003984215D043F20043F9
:101EC000C4F2010398420FD042F60043C4F201036A
:101ED000984209D00CE0B0F1804F05D040F20043A9
:101EE000C4F20003984203D14B6822F070021A43F7
:101EF00043F2FF33C4F20103984209DC604516DC6B
:101F0000B0F1804F28D040F20043C4F2000321E03A
:101F100044F2FF33C4F20103984211DC43F2004360
:101F2000C4F20103984217D044F2000310E040F6D7
:101F30000003C4F2000398420ED042F6004307E0CB
:101F400044F60003C4F20103984205D044F2004372
:101F5000C4F20103984203D1CB6822F440721A43C1
:101F60004B6922F0800E8A6843EA0E03D1F800C064
:101F70000360C262A0F18042A2F596324FEAB2221B
:101F8000072AC0F828C007D8012303FA02F212F08A
:101F9000E50F1CBF096901630121416180BD00009B
:101FA00010B5846A616A814211D0A16A814216D05B
:101FB000E16A81421BD0216B81421FD1C069082197
:101FC0000028217704BF012084F8410016E0C16990
:101FD00001200029207708BF84F83E000EE0C06988
:101FE0000221217750B9012084F83F0006E0C06942
:101FF0000421217710B9012084F8400046F6F04012
:10200000C2F2000084420FD046F63C50C2F20000FB
:10201000844211D140F27810C2F20000806858B1B9
:10202000D0E90010884707E040F20810C2F2000033
:10203000006E012105F05CFB0020207710BD000040
:10204000806A002101777047816A4A6A82420FD014
:102050008A6A824210D0CA6A824211D00A6B8242D6
:102060004FF0010014BF81F83D0081F841000AE003
:10207000012081F83E0006E0012081F83F0002E0E7
:10208000012081F8400000200877704780B5D0F823
:1020900000E0DEF81CC00CEA01038B4218D046F6C3
:1020A000047CC2F2000C00BFDCF800309B1AB3F1D4
:1020B000007F0FD2DEF800305B0744BFDEF81C3033
:1020C0005FEA035357D4DEF81C300B408B42EBD150
:1020D000002080BD016851E8001F026821F4D07122
:1020E00042E80013BBB3016851E8001F026821F405
:1020F000D07142E8001373B3016851E8001F026811
:1021000021F4D07142E800132BB3016851E8001F9D
:10211000026821F4D07142E80013002BDAD11AE0F2
:10212000016851E8021F026821F0010142E8021330
:10213000DBB1016851E8021F026821F0010142E8A9
:10214000021393B1016851E8021F026821F00101F6
:1021500042E802134BB1016851E8021F026821F006
:10216000010142E80213002BDAD12021C0F88410CB
:1021700000F1880156E04FF40061CEF8201000BF56
:10218000016851E8001F026821F4D07142E8001391
:10219000BBB3016851E8001F026821F4D07142E826
:1021A000001373B3016851E8001F026821F4D07175
:1021B00042E800132BB3016851E8001F026821F4C4
:1021C000D07142E80013002BDAD11AE0016851E81F
:1021D000021F026821F0010142E80213DBB101682D
:1021E00051E8021F026821F0010142E8021393B195
:1021F000016851E8021F026821F0010142E8021360
:102200004BB1016851E8021F026821F0010142E868
:102210000213002BDAD12021C0F88410C0F88810F6
:1022200000F18C0120220A60002180F88010032038
:1022300080BD0000FEE70000B0B540F29400C2F29D
:10224000000004F0FFF846F69031C2F2000181650B
:1022500040F28410C2F2000004F0F4F846F6F431C3
:10226000C2F20001816540F2F00446F6F040C2F28D
:102270000004C2F200000025C4E9000540F2081085
:10228000C2F2000004F0DEF80421C0E9154140F27A
:10229000F80046F6A441C2F20000C2F20001C0E913
:1022A000001540F26C11C2F20001C1E9000540F2D4
:1022B000001046F63C51C2F20000C2F20001C0E933
:1022C000001540F27811C2F20001C1E90005B0BD6D
:1022D00080B52BA040F27C210830C2F2000140F210
:1022E000940240F20043C2F20002C4F6000381E807
:1022F0000D004FF40060888124A040F28C22083049
:10230000C2F20002106046F20440115040F2182060
:10231000C2F2000004F096F840F20811C2F2000187
:1023200047F27C125430C2F2000205230EC040F284
:102330001420C2F200000121017040F21620C2F206
:102340000000017040F2E010C2F2000040F26C1197
:1023500046F28D7CC2F2000140F2781246F24163EF
:10236000C0F6000C4FF07E5E00F11807C2F20002CA
:10237000C0F600030EC7C0E9090CC0E90B0E80BD12
:102380000000000000000000E95300080000000009
:102390000000000021570008B95C00081D56000825
:1023A000C95D0008A55800083D5E0008F159000805
:1023B00069570008F557000840F278000CA1C2F2F6
:1023C00000004FF0000C08314FF00A12C0E9001C69
:1023D00048F6E8418260C0F6000108A24FF6FF739C
:1023E000C0E90412FF21838181760383704700BF17
:1023F000000000000000000055650008426F6F7487
:102400006C6F61646572000040F28C2AC2F2000AAF
:1024100040F2780840F2A0090AF104064FF4485B44
:10242000C2F20008C0F2500935462846502105F195
:102430005007FEF7A6F93846502105F1A004FEF733
:10244000A0F92046502105F1F007FEF79AF9384629
:10245000502105F5A074FEF794F92046502105F5AA
:10246000C877FEF78EF93846502105F5F074FEF76F
:1024700088F92046502105F50C77FEF782F9384699
:10248000502105F52074FEF77CF92046502105F512
:102490003477FEF776F93846502105F54874FEF793
:1024A00070F92046502105F55C77FEF76AF9384649
:1024B000502105F57074FEF764F92046502105F5AA
:1024C0008267FEF75EF93846502105F58C64FEF709
:1024D00058F92046502105F59667FEF752F938461F
:1024E000502105F5A064FEF74CF92046502105F572
:1024F000AA67FEF746F93846502105F5B464FEF7A1
:1025000040F92046502105F5BE67FEF73AF93846F6
:10251000502105F5C864FEF734F92046502105F531
:10252000D267FEF72EF93846502105F5DC64FEF738
:1025300028F92046502105F5E667FEF722F93846CE
:10254000502105F5F064FEF71CF92046502105F5F1
:10255000FA67FEF716F93846502105F50264FEF7D2
:1025600010F92046502105F50767FEF70AF93846AD
:10257000502105F50C64FEF704F92046502105F5BD
:102580001167FEF7FEF83846502105F51664FEF790
:10259000F8F82046502105F51B67FEF7F2F838469B
:1025A000502105F52064FEF7ECF82046502105F592
:1025B0002567FEF7E6F83846502105F52A64FEF750
:1025C000E0F82046502105F52F67FEF7DAF8384687
:1025D000502105F53464FEF7D4F82046502105F566
:1025E0003967FEF7CEF83846502105F53E64FEF710
:1025F000C8F82046502105F54367FEF7C2F8384673
:102600005021ABF5C86B05F54865FEF7BAF8BBF18C
:10261000000F7FF40AAF40464FF00A11524603F014
:1026200099FF46F204405AF800004A4601683346D2
:102630000F680021B8474FF4485BF5E64843B0FB0C
:10264000F2F070472DE9F04F97B04EF60C54CEF2F1
:102650000004A0694FF6FF0140F4E040A06120684B
:1026600041F2080B084040F20031C0F2FA51084331
:1026700047F2140520600F20C4F2020BC4F20005DB
:10268000FEF7B4FB002840F09580DBF858004FF0CF
:10269000FF3240F00100CBF85800DBF8580000F0A2
:1026A000010006900698DBF8500040F08050CBF80F
:1026B0005000DBF8500000F080500690069820682B
:1026C000C0F3022181F007030420042B28BF034636
:1026D000CF1E02FA03F64FF005034FF0000138BF9A
:1026E0000F4623EA060606FA07F73F012773276815
:1026F000C7F3022787F00706042E28BF0646033FCC
:1027000002FA06F638BF0F4623EA060606FA07F76E
:102710003F0167732768C7F3022787F00706042E77
:1027200028BF0646033F02FA06F638BF0F4623EAE3
:10273000060606FA07F73F01A7732768C7F30227C3
:1027400087F00706042E28BF0646033F02FA06F666
:1027500038BF0F4623EA060606FA07F73F01E7747B
:102760002768C7F3022787F00706042E28BF06460E
:1027700002FA06F6033F23EA060338BF0F46BB40C2
:102780001B0123752368C3F3022383F00707042F7B
:1027900038BF384602FA00F0033B6FEA000038BF4A
:1027A0000B4698400001A07555F80C0C40F4804091
:1027B00045F80C0C55F8140CE96E00F4C06040F2BA
:1027C000000421F48071B0F5806FC2F20004E96664
:1027D00026D155F8140C012161F34A2045F8140C58
:1027E0002068322148434DF68361C4F21B31A0FBBF
:1027F0000101880C2968490511D5411C0FD02968B1
:1028000049050CD558B12968490508D5012806D0D5
:102810002968490503D50228A0F10400EAD12868F7
:10282000DBF80000DBF8042000F00C015BF8080C7A
:1028300046F6047A46F608750429C2F2000AC2F286
:1028400000052FD002F0030281F00C0182F0020299
:102850001144B1FA81F1490924D140F480704BF858
:10286000080CDAF800005BF8080C400512D4DAF81E
:1028700000005BF8080C40055EBFDAF800005BF86A
:10288000080C5FEA405005D4DAF800005BF8080C49
:102890004005E6D55BF8040C402161F31E604BF85F
:1028A000040C0DE05BF8040C402161F31E604BF852
:1028B000040C29781020002918BF0F20FEF796FA83
:1028C000DBF8900040F00100CBF89000DAF800004F
:1028D000DBF89000800712D4DAF80000DBF89000F3
:1028E00080075EBFDAF80000DBF890005FEA8070D6
:1028F00005D4DAF80000DBF890008007E6D5DBF8B5
:10290000000000F00C000C2840F0EC80DBF8040024
:1029100042F20000C4F20200016811F00C0F05D170
:102920000168042262F30301016001685BF8081C7E
:10293000DBF8041042F20047DBF80420C0F2F40791
:1029400001F00301C2F3031203293946DBF8043016
:1029500002F1010204BF41F20021C0F27A01B1FB91
:10296000F2F1DBF80420C3F306235943C2F34162BA
:10297000022303EB4202B1FBF2F14BF20142C0F23F
:10298000C44241F200239142C0F27A0308D3DBF83B
:102990000010DBF80010082262F30711CBF80010DA
:1029A000DBF8001041F00301CBF80010DAF800105A
:1029B000DBF8001001F00C010C2917D0DAF8001038
:1029C000DBF8001001F00C010C290FD0DAF8001030
:1029D000DBF8001001F00C010C2907D0DAF8001028
:1029E000DBF8001001F00C010C29DFD1DBF800103E
:1029F000072241F4E061CBF80010DBF8001062F32D
:102A00000D21CBF80010DBF8001021F0F001CBF81D
:102A10000010016801F00F01052921D3016804228B
:102A200062F30301016000BFDAF80010016801F0F1
:102A30000F01042914D0DAF80010016801F00F0129
:102A400004290DD0DAF80010016801F00F01042903
:102A500006D0DAF80010016801F00F010429E3D173
:102A6000DBF8000020F4E060CBF80000DBF80000A9
:102A700020F46050CBF80000DBF8000000F00C0000
:102A80000428384600F09180DBF8000000F00C00CC
:102A90000828184600F08980DBF8000000F00C00E0
:102AA0000C2840F08180DBF80400DBF8041000F013
:102AB0000300C1F3031103283846DBF8042001F1B9
:102AC000010108BF1846B0FBF1F0DBF80410C2F3B7
:102AD00006225043C1F34161022202EB4101B0FBE7
:102AE000F1F062E05BF8080C20F080704BF8080C05
:102AF000DAF8000045F23250C1F2000017E000BFE2
:102B000001000000040000000200000008000000B6
:102B1000DAF800105BF8081C890142BFDAF80010EF
:102B20005BF8081C5FEA81110CD5DAF800105BF83D
:102B3000081C890142BFDAF800105BF8081C5FEA44
:102B40008111E5D4DBF8041048F20C02C0F29F12A8
:102B500011400843CBF804005BF8080C40F080708B
:102B60004BF8080CDBF8040040F08070CBF8040050
:102B7000DAF800005BF8080C80013FF5C9AEDAF81E
:102B800000005BF8080C80015EBFDAF800005BF81B
:102B9000080C5FEA80103FF5BBAEDAF800005BF886
:102BA000080C8001E4D5B3E60020DBF8001048F6FD
:102BB000C042C1F30311C0F60002515C40F200466E
:102BC00001F01F01C840297820601020C4F60006DB
:102BD000002918BF0F20FEF709F90027CDE9097772
:102BE000DBF844004FF4006940F00400CBF84400E7
:102BF000DBF8440006AC00F0040001900198DBF81B
:102C000044004FF4441540F00200CBF84400DBF8D8
:102C100044004FF0020800F0020001900198DBF838
:102C20004400214640F00100CBF84400DBF84400AA
:102C300000F00100019001984FF44040C6F8289040
:102C4000069006F580600795CDF82080FDF7FCFF23
:102C500040F2044006A981E8210130462146FDF7F3
:102C6000F3FF0120CDE9070730462146CDF8189043
:102C70000997FDF7E9FF4EF60C55CEF200052868DE
:102C80004FF0FF3CC0F3022181F007020420042A28
:102C900028BF0246CB1E0CFA02F64FF0050238BFE1
:102CA0003B4622EA060606FA03F34EF200111B0128
:102CB000CEF2000181F808334FF480760E602B6865
:102CC00045F60048C3F3022383F00704042C28BF11
:102CD0000446033B0CFA04F438BF3B4622EA0404E2
:102CE00004FA03F31C014EF20D43CEF20003DC762E
:102CF0004E60DBF84060C4F2000846F00406CBF8F2
:102D00004060DBF840604FF4E06906F00406069688
:102D1000069EDBF8406046F00106CBF84060DBF829
:102D2000406006F001060696069EDBF8406046F01D
:102D30000206CBF84060DBF8406006F0020606961B
:102D4000069E2E68C6F3022686F00704042C28BFD0
:102D50000446033E0CFA04F438BF3E4622EA04045B
:102D600004FA06F6360181F80C634FF480560E60C3
:102D70002E68C6F3022686F00704042C28BF0446FA
:102D8000033E0CFA04F438BF3E4622EA040404FA77
:102D900006F636011E704FF400560E602E68C6F31C
:102DA000022686F00704042C28BF0446033E0CFAD2
:102DB00004F438BF3E4622EA040404FA06F636015B
:102DC0005E704FF480460E602E68C6F3022686F0D1
:102DD0000704042C28BF0446033E0CFA04F438BF51
:102DE0003E4622EA040404FA06F63601DE704FF489
:102DF00080360E602E680725C6F3022686F007048B
:102E0000042C38BF20460CFA00F0033E22EA0000F2
:102E100038BF3E46B040000183F82B004FF0807071
:102E2000486046F69030A8F51051C2F200004FF409
:102E300082744FF400424FF480230826C0E9001446
:102E4000C0E90229C0E90477C0E90636C0E908777D
:102E5000C0E90A75C0E90C76FEF7FAF946F6F430D7
:102E6000A8F50051C2F2000080E892024FF48021E0
:102E700000F11802C0E90477C2C2C0E90977C0E9CD
:102E80000B574663FEF7E4F947F214094CF6EC7071
:102E9000C4F2000946F658464844C2F200064FF60E
:102EA000FF71C6E9000730460497CDE90277C6E90D
:102EB0000271C6E90477B761FEF70AFB4FF4805050
:102EC000019001A93046FEF7C5FB96F83D000224AB
:102ED000002808BF86F83C7086F83D403068311DF8
:102EE000FEF7DEFF012086F8480086F83E0086F8EF
:102EF0003F0086F8400086F8410086F8420086F8D8
:102F0000430086F8440086F8450086F8460086F8B7
:102F1000470086F83D0086F83D40306843F200489F
:102F200042688168C4F2010842F6004C4045C4F290
:102F3000010C04D0604508BF22F4700201E022F4C5
:102F400070024FF68F73CFF6FF531A40426042F67D
:102F5000FF32C4F2010290420FDCB0F1804F16D074
:102F600040F20042C4F20002904210D040F600024B
:102F7000C4F2000290420AD00CE0604507D044F24F
:102F80000002C4F20102904201D0404502D121F07A
:102F900080018160012486F83D40016A4DF20047BE
:102FA00021F00101CBF6FE770162056AC119426882
:102FB00083694FEAB121072925F0020705D88C4023
:102FC00014F0E50F18BF25F00E07072906D80125D4
:102FD0008D4015F0E50F18BF22F440724FF68C7546
:102FE000CFF6FE752B40603342604FF6FF7283616F
:102FF00042630762826942F008028261826922F0BC
:103000000402826182698261002286F83C204FF4CA
:103010000052426496F83E20012A46D1022286F8E8
:103020003E20026A062922F001020262026A42F090
:103030000102026200F2C681012202FA01F111F0DE
:10304000650F00F0BF81416C42F6FF32C4F201020D
:1030500041F40041904241640FDCB0F1804F16D042
:1030600040F20041C4F20001884210D040F6000155
:10307000C4F2000188420AD013E0604507D044F250
:103080000001C4F20101884201D0404509D18168A4
:103090000722C0F201021140062906D0B1F5803F97
:1030A00003D0016841F00101016044F60001C4F25F
:1030B0000101884225D044F20001C4F20101884296
:1030C00010D0B0F1804F39D1DBF8440040F002005D
:1030D000CBF84400DBF8440000F0020006900698AC
:1030E00008201CE0DBF8440040F00200CBF844006C
:1030F000DBF8440000F00200069006984FF4804090
:103100000DE0DBF8440040F00200CBF84400DBF8AF
:10311000440000F00200069006984FF400700690FC
:10312000022007900020CDE9080001200A9040F21B
:10313000004006A9C4F60000FDF786FD4CF2EC70D5
:1031400046F6D4568144C2F200064FF4E131002421
:103150000C20C6E90091C6E90244C6E90440C6E96C
:103160000644C6E90844B462D6F8841021B10022AE
:1031700000210025002351E006AD05F108003C21A7
:1031800086F88040FDF71FFB0120CDE906042846A4
:10319000FDF7EAFEDBF8580001A940F48040CBF8C7
:1031A0005800DBF8580000F4804001900198DBF8EB
:1031B000440040F00100CBF84400DBF8440000F08C
:1031C0000100019001984FF4C06001900220CDE908
:1031D0000204072005904FF090400494FDF734FD61
:1031E00046F614076C20C2F20007C4F2020019214F
:1031F0001022802387E817003846C7E90434C7E95E
:1032000006443C62FDF7A2FBD6F80090D6E90232F4
:10321000D6E90450D6E90641B767BE622427C6F84E
:103220008470D9F800702B4327F00107C9F80070AB
:103230001843D9F8003046F6F317CCF6FF773B4039
:1032400018430843C9F80000D9F804004FF2FF43BF
:1032500020F440501043C9F8040047F21400C4F2AF
:10326000000000F6EC72306A914518BF0443D9F8AB
:103270000800C1F2FF1318402043C9F80800D9F82C
:103280002C30706A23F00F030343C9F82C3044F646
:10329000FF33C4F2000399454FF010031ADD44F6E2
:1032A0000047C4F2000742F20045B945C0F2F405F8
:1032B00024D048F20007C4F20007B94522D043F6F3
:1032C0000007C4F20107B9452BD1DBF88030AFF21B
:1032D000D07722E044F20047C4F2000742F20045F2
:1032E000B945C0F2F40511D044F60007C4F2000756
:1032F000B94516D1DBF880301B090AE0DBF88030D5
:103300009B0906E0DBF880309B0A02E0DBF88030A6
:103310009B0848F6B047C0F6000703F0030357F8D0
:103320002330914518D0B1F5004F35D12946DFE85B
:1033300013F0090024013901DC0DAE00DC0DDC0DB9
:10334000DC0D370140F20001C2F200010968DBF830
:103350000020C2F3022219E12946DFE813F0090038
:10336000C60D8500C60D4800C60DC60DC60D45002C
:1033700040F20001C2F200010968DBF8002048F6C3
:10338000E043C2F30222C0F600039A5C02F01F027F
:10339000D140002968D13EE12946DFE813F0090059
:1033A00018012D01A60DB400A60DA60DA60D2B012A
:1033B00040F20001C2F200010968DBF80020C2F30C
:1033C00002220DE142F6FF31C4F2010188427FF78B
:1033D00044AE43F6FF71C4F20101884201F3118348
:1033E00060457FF452AE52E64FF400413CE0DBF81A
:1033F000001001F00C010429294635D0DBF800103B
:1034000001F00C01082941F20021C0F27A012BD011
:10341000DBF8001001F00C010C2940F0FC80DBF817
:103420000410DBF8042001F00301C2F303120329A6
:10343000294641F20027DBF8043002F10102C0F214
:103440007A0708BF3946B1FBF2F1DBF80420C3F379
:1034500006235943C2F34162022303EB4202B1FB4C
:10346000F2F1002900F0D78047F6F452C0F60002CE
:1034700032F810007268B1FBF0F00023010E000278
:1034800010EB520041F10001FDF7B6F8C1E0DBF8A6
:10349000001001F00C010429294600F08380DBF8BC
:1034A000001001F00C01082941F20021C0F27A015C
:1034B00078D0DBF8001001F00C010C2940F0AB8053
:1034C000DBF80410DBF8042001F00301C2F303125F
:1034D0000329294641F20027DBF8043002F10102FA
:1034E000C0F27A0708BF3946B1FBF2F1DBF80420DD
:1034F000C3F306235943C2F34162022303EB4202A2
:10350000B1FBF2F14AE0DBF8001001F00C010429F4
:10351000294671D0DBF8001001F00C01082941F2B6
:103520000021C0F27A0167D0DBF8001001F00C0135
:103530000C2970D1DBF80410DBF8042001F0030142
:10354000C2F303120329294641F20027DBF80430B5
:1035500002F10102C0F27A0708BF3946B1FBF2F16D
:10356000DBF80420C3F306235943C2F3416202236C
:1035700003EB4202B1FBF2F13AE040F20001C2F289
:1035800000010968DBF80020C2F3C22248F6E043DC
:10359000C0F600039A5C02F01F02D14011B93AE074
:1035A0004FF4004147F6F452C0F6000232F8100022
:1035B0007268B1FBF0F0510801EB4000B0FBF2F093
:1035C0004FF6F0710140C0F34200084421E040F2A0
:1035D0000001C2F200010968DBF80020C2F3C22238
:1035E00048F6E043C0F600039A5C02F01F02D140A7
:1035F00011B910E04FF4004147F6F452C0F6000252
:1036000032F81000B1FBF0F0716800EB5100B0FB34
:10361000F1F0C9F80C00B16A4FF00110B06600205B
:1036200000293067706767D0CA070CD18A0714D4A5
:103630004A071CD40A0724D4CA062CD48A0634D4D8
:103640004A063CD44EE0D9F80420F36A22F4003252
:103650001A43C9F804208A07EAD5D9F80420336B45
:1036600022F480321A43C9F804204A07E2D5D9F877
:103670000420736B22F480221A43C9F804200A073D
:10368000DAD5D9F80420B36B22F400421A43C9F802
:103690000420CA06D2D5D9F80820F36B22F4805250
:1036A0001A43C9F808208A06CAD5D9F80820336C0D
:1036B00022F400521A43C9F808204A0612D5D9F854
:1036C0000420736C22F480121A43B3F5801FC9F8EA
:1036D000042007D1D9F80420B36C22F4C0021A43A5
:1036E000C9F80420090607D5D9F80410F26C21F4B2
:1036F00000211143C9F80410D9F8041021F49041B5
:10370000C9F80410D9F8081021F02A01C9F80810E6
:10371000D9F8001041F00101C9F80010C6F88C007A
:10372000DAF80070D9F80000000707D530464FF4EA
:1037300000113A46FEF7AAFCD6F80090D9F800002E
:10374000400707D530464FF480013A46FEF79EFC0D
:10375000D6F80090202200204FF0240CC6F88420D8
:10376000C6F88820F06686F88000C6F884C0D9F8CC
:103770000050D9F8000048F6D04120F00100C9F807
:103780000000D9F8080048F6D84E20F06040C9F88B
:103790000800776EC0F60001C0F6000E9FB1D9F8A0
:1037A0000830D9F80840C3F34263640F085D1EF87F
:1037B0000440C000B0FBF4F4C85C1EF80330C00045
:1037C000B0FBF3F301E001240123A6F86A40A6F858
:1037D0006830C9F80050C6F88420C6F884C0D9F80B
:1037E0000020D9F8000020F00100C9F80000D9F845
:1037F000080020F06060C9F808009FB1D9F80800FF
:10380000D9F80830C0F342605B0FCF5C095C1EF84A
:1038100003301EF80000FF00C900B7FBF3F3B1FB53
:10382000F0F001E001230120A6F868002020242107
:10383000A6F86A30C9F80020C6F88400C6F88410DB
:10384000D9F80010D9F8002045F6004522F0010211
:10385000C9F8002021F00052002146F67404C4F299
:1038600000057166C9F80020C6F88400C2F20004A1
:103870000820022286F88010C4E90050A260C4E942
:103880000421C4E90611216294F8A922D2B906AD37
:1038900084F8A812281D4021FCF795FF4FF4005032
:1038A00006902846FDF760FBDBF8500040F400006E
:1038B000CBF85000DBF8500000F4000001900198B4
:1038C000D4E90050032184F8A912B5F8401044F25D
:1038D0007F021140A5F8401060B3002101220027AB
:1038E000002300BF07EB870704EBC70686F82830E4
:1038F000DFB20133F786DFB2B84286F8292086F8B6
:103900002B10C6E90E113164ECD8002100230022EF
:1039100003EB830304EBC30787F868210132D3B2BA
:10392000984287F8691187F86B11C7E95E11C7F8EB
:103930008011EDD801210020A5F84010A5F8400025
:10394000A5F84400A5F8500084F8240084F8A912D2
:10395000E269012A0FD1C4F8E81284F8E002B5F850
:10396000541041F00101A5F85410B5F8541041F07D
:103970000201A5F8541046F6F045C2F200050224F3
:103980000490CDE902004FF080414322C5E90204D2
:103990002861A8612846C5E90012FDF799FD4FF49A
:1039A0008050019001A92846FDF754FE95F83D008E
:1039B000291D002804BF002085F83C0085F83D4003
:1039C0002868FEF76DFA012085F8480085F83E006A
:1039D00085F83F0085F8400085F8410085F84200F1
:1039E00085F8430085F8440085F8450085F84600D1
:1039F00085F8470085F83D0085F83D40286842F687
:103A00000047426881684045C4F2010704D0B842CB
:103A100008BF22F4700201E022F470024FF68F73A7
:103A2000CFF6FF531A4042F6FF33C4F20103984227
:103A300042600FDCB0F1804F16D040F20042C4F279
:103A40000002904210D040F60002C4F20002904200
:103A50000AD00CE0B84207D044F20002C4F20102DE
:103A6000904201D0404502D121F0800181600121C6
:103A700085F83D10002185F83C10016A404521F091
:103A800010010162036A4168826901D0B84202D123
:103A900023F0E00301E023F020034DF20047CBF6D2
:103AA000FE7707444FEAB727072F07D8012606FA03
:103AB00007F717F0E50F18BF21F4406148F6FF47FC
:103AC000CFF6FF673A4002F5C042416000218261B3
:103AD00081630362826942F400628261826922F436
:103AE000806282618269826144F60002C4F201024E
:103AF000904285F83C1025D044F20001C4F2010147
:103B0000884210D0B0F1804F39D1DBF8440040F04A
:103B10000200CBF84400DBF8440000F002000690FD
:103B2000069808201CE0DBF8440040F00200CBF8C7
:103B30004400DBF8440000F00200069006984FF4C1
:103B400080400DE0DBF8440040F00200CBF8440078
:103B5000DBF8440000F00200069006984FF4007075
:103B60000690022007900020CDE9080001200A906D
:103B700040F2004006A9C4F60000FDF765F842F6E1
:103B80000009C4F2000946F63C56A9F51050C2F2ED
:103B900000060024802141F2883286E81300304676
:103BA0000994CDE90744C6E90324B161FDF790FC0F
:103BB0004FF480500DF11808069030464146FDF74D
:103BC00049FD96F83D00311D002808BF86F83C40AD
:103BD000022486F83D403068FEF762F9012086F83D
:103BE000480086F83E0086F83F0086F8400086F8D8
:103BF000410086F8420086F8430086F8440086F8C3
:103C0000450086F8460086F8470086F83D0086F8AD
:103C10003D40306843F2004342688168C4F20103CA
:103C200042F6004C9842C4F2010C04D0604508BF33
:103C300022F4700201E022F470024FF68F73CFF687
:103C4000FF531A4042F6FF33C4F201039842426028
:103C50000FDCB0F1804F1AD040F20042C4F20002F3
:103C6000904214D040F60002C4F2000290420ED0FE
:103C700010E060450BD044F20002C4F20102904211
:103C800005D043F20042C4F20102904202D121F079
:103C9000800181600125002186F83D5086F83C10A6
:103CA000016A21F0010101624DF20041CBF6FE7183
:103CB000076A0144426883694FEAB121072927F066
:103CC000020405D88D4015F0E50F18BF27F00E044B
:103CD000072906D801278F4017F0E50F18BF22F4F7
:103CE00040724FF68C77CFF6FE773B4043F060038F
:103CF00042600022836142630462836943F00803E7
:103D00008361836923F0040383618369836186F897
:103D10003C2096F83D20012A38D1022286F83D2029
:103D2000C26842F6FF33C4F2010342F00102984236
:103D3000C2600FDCB0F1804F1AD040F20042C4F2F2
:103D40000002904214D040F60002C4F200029042F9
:103D50000ED017E060450BD044F20002C4F201021D
:103D6000904205D043F20042C4F20102904209D1D0
:103D700082680723C0F201031A40062A06D0B2F572
:103D8000803F03D0026842F00102026096F83E20B4
:103D9000012A4ED1022286F83E20C268062942F04E
:103DA0000202C260026A22F001020262026A42F06A
:103DB0000102026200F26283012202FA01F111F0B3
:103DC000650F00F05B83416C42F6FF32C4F20102E2
:103DD00041F40041904241640FDCB0F1804F1AD0B1
:103DE00040F20041C4F20001884214D040F60001C4
:103DF000C4F2000188420ED017E060450BD044F2B7
:103E00000001C4F20101884205D043F20041C4F22E
:103E10000101884209D181680722C0F201021140E4
:103E2000062906D0B1F5803F03D0016841F00101B9
:103E3000016047F214014DF2EC70C4F2000146F645
:103E4000A4460844C2F200060024FE21C6E900048C
:103E50003046C6E90241C6E90444B461FDF738FBC7
:103E600096F83D00311D00284FF0020008BF86F88B
:103E70003C4086F83D003068FEF712F8012486F8D1
:103E8000484086F83E4086F83F4086F8404086F835
:103E9000414086F8424086F8434086F8444086F820
:103EA000454086F8464086F8474086F83D403068F1
:103EB0004DF20043016ACBF6FE7321F0010101626D
:103EC000076A0344416882694FEAB325072D27F04A
:103ED000020305D8AC4014F0E50F18BF27F00E031D
:103EE000072D06D80127AF4017F0E50F18BF21F4C2
:103EF00040714FF68C77CFF6FE773A4042F0600281
:103F000041600121826141630362816944F60002DC
:103F100041F008018161816942F2004521F004010C
:103F200081618169C4F2010281610021C0F2F4055E
:103F300086F83C104FF400519042416425D044F281
:103F40000001C4F20101884210D0B0F1804F39D194
:103F5000DBF8440040F00200CBF84400DBF84400FA
:103F600000F002000690069808201CE0DBF84400F0
:103F700040F00200CBF84400DBF8440000F00200FF
:103F8000069006984FF480400DE0DBF8440040F0C6
:103F90000200CBF84400DBF8440000F00200069079
:103FA00006984FF400700690022007900020CDE99B
:103FB000080001200A9040F2004006A9C4F6000063
:103FC000FCF742FE46F66834C2F2000400207F216E
:103FD000FF224FF08043C4E90090C4E90212C4E913
:103FE0000400C4E90603206294F8251009BB84F894
:103FF000240008F104003C21FCF7E5FB4FF400200D
:1040000006904FF4007016904046FCF7ADFFDBF8C9
:10401000880040F40040CBF88800DBF8500040F402
:104020008060CBF85000DBF8500000F48060019015
:10403000019842F60C010220C4F2000184F8250028
:10404000CA208861532088610868400636D4086811
:1040500040F080000860DAF80000096849062DD4B5
:10406000D4F80090DAF80010091AB1F57A7F00F25E
:104070003487D9F80C10490620D4DAF80010091A50
:10408000B1F57A7F00F22987D9F80C10490615D4CA
:10409000DAF80010091AB1F57A7F00F21E87D9F814
:1040A0000C1049060AD4DAF80010091AB1F57A7F23
:1040B00000F21387D9F80C104906D3D5D9F81800A7
:1040C0004FF6BF71CFF68F310840C9F81800D9F804
:1040D0001800C9F81800FF20C0F27F00C9F81000CE
:1040E0002068C16821F08001C1608169890632D4ED
:1040F000C16840F2000321F02001C160DAF800102D
:10410000C2F20003C268920665D4DAF80020521A9F
:10411000B2F57A7F1AD8C26892065CD4DAF8002029
:10412000521AB2F57A7F11D8C268920653D4DAF8DF
:104130000020521AB2F57A7F08D8C26892064AD493
:10414000DAF80020521AB2F57A7FDBD9032184F81D
:104150002510FF214162816940F2000321F0200116
:104160008161C168C2F2000321F02001C160DAF868
:10417000001000BFC268920629D4DAF80020521A53
:10418000B2F57A7F1AD8C268920620D4DAF80020F5
:10419000521AB2F57A7F11D8C268920617D4DAF8AB
:1041A0000020521AB2F57A7F08D8C26892060ED45F
:1041B000DAF80020521AB2F57A7FDBD9032184F8AD
:1041C0002510816941F020018161FF2141628169EF
:1041D00041F0200181618169022262F35F71816196
:1041E000FF214162012084F82500DBF8000000F087
:1041F0000C0004282ED048F6C0470828C0F6000757
:1042000022D00C282CD1DBF80400DBF8041041F29A
:10421000002200F00300C1F30311C0F27A02013161
:10422000022808BF2A46DBF80400B2FBF1F1DBF8F4
:104230000420C0F306204843C2F34161022202EB8E
:104240004101B0FBF1F503E041F20025C0F27A052F
:104250001D6006E048F6C0471D60C0F6000700E09C
:104260001D68DBF8000040F20041C0F30310385C29
:10427000C4F6000125FA00F0186040F21420C2F2E2
:104280000000007840F216220969C2F200020028FC
:1042900018BF042012780840B2EB900F46D14EF2BE
:1042A00000114FF0FF30CEF20001C1F88000C1F8DC
:1042B0008400C1F88800C1F88C00C1F89000C1F8F2
:1042C0009400C1F89800C1F89C00BFF34F8FBFF372
:1042D0006F8FCBF83000CBF83400CBF83800CBF838
:1042E0002000CBF82400CBF828000020CBF83000C9
:1042F000CBF83400CBF83800CBF82000CBF8240002
:10430000CBF82800CBF85000CBF85400CBF858007D
:10431000CBF84000CBF84400CBF848000020C1F6B1
:10432000FF70D0E9000180F30888084740F27C273D
:10433000C2F200077868006D01F01EFE7868012166
:10434000826D8DF818101168BA684B68072666F3FD
:104350000B234B60B989916206A9012200F0FEFE91
:1043600046F61479C2F20009D9F8000048B14FF0BE
:10437000500080F31188BFF36F8FBFF34F8F00BFE2
:10438000FEE7D9F8000046F664680130C9F800007D
:1043900047F2E020C2F20000C2F200080168D8F83B
:1043A0000000D0E902634269B360C368051D5E6026
:1043B0005668AE4208BF536000234361106801385D
:1043C0001060106868B9D8F8000046F61C73C06A1F
:1043D000C2F2000301221E6802FA00F026EA000081
:1043E0001860D8F8000001F1780C11F1780FC0F8CE
:1043F00004C021D346F66C60C2F20000D0F800C0C1
:10440000D8F800100A4652F8046F701C48D00CF11E
:10441000080500BF6B681868B04249D85C6820681E
:10442000B0424BD863681868B0424BD85D682868C2
:10443000B0422846EED947E046F66860C2F2000076
:10444000D0F800E0D8F80020134653F8045F681C49
:104450002AD00EF1080400BF66683068A8422AD846
:1044600070680168A9422BD846683168A94237D8DC
:10447000746820682146A842EED933E042F6FF3145
:10448000C4F2010188427FF7A8AC43F6FF71C4F281
:104490000101884200F3C88260457FF4B6ACBAE4FB
:1044A000DCF8103058680FE0DEF81060716819E031
:1044B00018462B4608E03146264613E0204603E026
:1044C00001460FE01846234688608260CB605A6040
:1044D000C1F814C0DCF800000130CCF8000015E091
:1044E0003146064691608B60D6607360C2F814E076
:1044F000DEF800000130CEF8000047F29420C2F24E
:10450000000001688C4538BFC0F800C003F06CFBA8
:1045100058B94EF60C514FF08050CEF2000141F8E0
:10452000080CBFF34F8FBFF36F8F78208DF8180002
:1045300078683621826D8DF804101168BA684B686E
:10454000072565F30B234B60B9890126916201A908
:10455000012200F003FEB968BA89786806AC8A6166
:104560002146012200F0FAFD05208DF81800786838
:104570003A21826D8DF804101168BA684B6865F3B2
:104580000B234B60B989916201A9012200F0E6FD7D
:10459000B968BA8978688A612146012200F0DEFD97
:1045A00040F60C40C3F20030069033208DF81C001A
:1045B0007868B221826D8DF804101168BA684B6872
:1045C00065F30B234B60B989916201A9012200F0C8
:1045D000C5FDB968BA8978688A612146052200F06C
:1045E000BDFD35208DF818007868B721826D8DF8F3
:1045F00004101168BA684B6865F30B234B60B989E6
:10460000916201A9012200F0A9FDB968BA89786810
:104610008A612146012200F0A1FD19208DF81800C1
:104620007868BB21826D8DF804101168BA684B68F8
:1046300065F30B234B60B989916201A9012200F057
:104640008DFDB968BA8978688A612146012200F037
:1046500085FD2C208DF818007868C021826D8DF8BA
:1046600004101168BA684B6865F30B234B60B98975
:10467000916201A9012200F071FDB968BA897868D8
:104680008A612146012200F069FD7868C221826DAD
:104690008DF818608DF804101168BA684B6865F3DE
:1046A0000B234B60B989916201A9012200F056FDEC
:1046B000B968BA8978688A612146012200F04EFD06
:1046C00012208DF818007868C321826D8DF80410CF
:1046D0001168BA684B6865F30B234B60B989916226
:1046E00001A9012200F03AFDB968BA8978688A61A7
:1046F0002146012200F032FD20208DF81800786854
:10470000C421826D8DF804101168BA684B6865F396
:104710000B234B60B989916201A9012200F01EFDB3
:10472000B968BA8978688A612146012200F016FDCD
:104730000F208DF818007868C621826D8DF804105E
:104740001168BA684B6865F30B234B60B9899162B5
:1047500001A9012200F002FDB968BA8978688A616E
:104760002146012200F0FAFC4AF2A410ADF818002C
:104770007868D021826D8DF804101168BA684B6892
:1047800065F30B234B60B989916201A9012200F006
:10479000E5FCB968BA8978688A612146022200F08E
:1047A000DDFC40F2D040C1F20D10069042F613300D
:1047B000C5F23F40079041F64C00C0F60D3008901E
:1047C00042F21F30ADF824007868E021826D8DF848
:1047D00004101168BA684B6865F30B234B60B98904
:1047E000916201A9012200F0B9FCB968BA89786820
:1047F0008A6121460E2200F0B1FC40F2D040C1F2A5
:104800000C10069042F61340C4F23F40079042F667
:104810005170C1F61F70089042F22030ADF82400AC
:104820007868E121826D8DF804101168BA684B68D0
:1048300065F30B234B60B989916201A9012200F055
:104840008DFCB968BA8978688A6121460E2200F029
:1048500085FC78682121826D8DF804101168BA6892
:104860004B6865F30B234B60B989916201A9012262
:1048700000F074FC78681121826D8DF804101168C5
:10488000BA684B6865F30B234B60B989916201A943
:10489000012200F063FC78682921826D8DF80410F4
:1048A0001168BA684B6865F30B234B60B989916254
:1048B00001A9012200F052FC7868006D02F038FE78
:1048C00040F21824C2F20004606D4AF6AB21406D3C
:1048D000CAF6AA21006840F2E0150068C2F200059D
:1048E000C06A41F211130130A0FB01014808A4F88D
:1048F000600021F00100E969A4F86200086800681E
:104900000168CA6822F00102CA600A6A1A4208D124
:104910000A6A44F244431A4203D10A6822F00102AF
:104920000A6080F83D60E869D0E90021106800F075
:10493000A5FBA869D0E90021106800F09FFBE86999
:1049400005F1200201684A6005F12801816042F208
:104950000940C0F600000FF294514FF4807202F04B
:1049600099FE002010210022002300F0CDFD01203F
:1049700000211022002300F0C7FD022000210022A8
:10498000102300F0C1FD032004210422042300F0C1
:10499000BBFD606D006D01F0EFFAD4E91521E06D0B
:1049A000D8F800301366D2E915351E685DB12A1FAC
:1049B0004FEAB202032A15D8DFE802F0020E0B110B
:1049C00006F13F0310E0324612F83E3F022B49D178
:1049D0005CE106F1410307E006F1400304E006F163
:1049E000420301E006F143031B78022B00F04E81E5
:1049F000032A35D8DFE802F0022B2E3106F13F0200
:104A000030E044F20001C4F2010188423EF43FABC1
:104A100044F60001C4F20101884202BF416C41F436
:104A200000414164FEF73DBB44F20001C4F20101C4
:104A300088423FF4F0A944F60001C4F20101884223
:104A400002BF416C41F400414164FFF7EEB906F149
:104A5000400207E006F1410204E006F1420201E0F3
:104A600006F143021278012A40F0108100EB400069
:104A70004FEA001031B94FF6F072C0F20102024065
:104A800040F0048165B12A1F4FEAB202032A17D809
:104A9000DFE802F0020A0E12022286F83F2012E03E
:104AA000022286F83E200EE0022286F840200AE02C
:104AB000022286F8412006E0022286F8422002E027
:104AC000022286F843204FEAB502032A00F2DE8074
:104AD00040084FF6F8730340DFE802F00223446415
:104AE000706A41F6A177C0F600073268C762706A43
:104AF00042F24107C0F600070763706A42F24907B5
:104B0000C0F600074763706A3432FBF7B3FF42F622
:104B100000470028C4F2010740F0B8804FF400714C
:104B20005FE0B06A41F6A177C0F600073268C7625D
:104B3000B06A42F24107C0F600070763B06A42F26A
:104B40004907C0F600074763B06A3832FBF792FFA7
:104B500042F600470028C4F2010740F097804FF466
:104B600080613EE0F06A41F6A177C0F60007326846
:104B7000C762F06A42F24107C0F600070763F06AB5
:104B800042F24907C0F600074763F06A3C32FBF780
:104B900071FF42F600470028C4F2010776D14FF4B6
:104BA00000611EE0306B41F6A177C0F60007326865
:104BB000C762306B42F24107C0F600070763306BF3
:104BC00042F24907C0F600074763306B4032FBF7FB
:104BD00051FF42F600470028C4F2010756D14FF4B6
:104BE00080513068C2681143C16005F01F02012185
:104BF000036A01FA02F293430362036A13434DF21C
:104C00000042CBF6FE7202444FEAB222062A036249
:104C100000F24081914011F0650F00F03B81416C42
:104C200042F6FF32C4F2010241F400419042416475
:104C30000DDCB0F1804F18D040F20041C4F2000109
:104C4000884212D040F60001C4F200010BE0B842E5
:104C50000BD044F20001C4F20101884205D043F2B6
:104C60000041C4F20101884209D181680722C0F2E3
:104C700001021140062906D0B1F5803F03D001683A
:104C800041F001010160002002F0ACF9606D006D9F
:104C900002F04EFC40F2100E4FF0500080F31188ED
:104CA000BFF36F8FBFF34F8FC2F2000EDEF800101C
:104CB0004A1C0029CEF800205AD0D8F80040D4E988
:104CC000023667699E60E66873607D68231D9D42B9
:104CD00008BF7E60002666613E68013E3E603F6818
:104CE000AFB9E76A46F6706507EB8706C2F20005C2
:104CF00055F826605EB946F61C75C2F200054FF005
:104D0000010C2E680CFA07F726EA07072F60A76A3E
:104D10008FB1D4E9075604F11800AE60266A7560B9
:104D20007D6885424FF0000008BF7E60A062386851
:104D300001383860386846F61870C2F2000007681B
:104D400001370760D8F80000844222D046F60C7084
:104D5000C2F200000368013B036046F66863C2F2DA
:104D600000031868006850B31868C068036828E03A
:104D70004EF60C50CEF2000050F8083C1B069CD0BA
:104D80004FF0500080F31188BFF36F8FBFF34F8F48
:104D9000FEE747F2CC20C2F2000007684668A66032
:104DA000B568E560B5686B60B3607B1C60610360EB
:104DB00046F61070C2F200000368013305E04FF0C0
:104DC000FF3347F29420C2F2000003609AB3CEF89A
:104DD000001011B9002080F31188D8F80000844237
:104DE0001CD094F85900022818D001280CD00028B3
:104DF00037D1206B40B1D9F800100131C9F800104B
:104E0000FBF78FFA02F0F0FED9F800000130C9F884
:104E100000002046FBF785FA02F0E6FE47F2B420D8
:104E2000C2F20000006818B1D8F8000084420CD02B
:104E300017B0BDE8F08F4FF0500080F31188BFF33A
:104E40006F8FBFF34F8F00BFFEE7D9F8000090B11E
:104E50004FF0500080F31188BFF36F8FBFF34F8F77
:104E6000FEE74FF0500080F31188BFF36F8FBFF360
:104E70004F8F00BFFEE74EF60C514FF08050CEF240
:104E8000000141F8080CBFF34F8FBFF36F8F17B0CD
:104E9000BDE8F08F42F6FF31C4F2010188427FF78E
:104EA000C8AE43F6FF71C4F20101884203DCB84288
:104EB0007FF4D5AED9E644F20001C4F20101884284
:104EC0003FF4D3AE44F60001C4F20101884202BFB0
:104ED000416C41F400414164D1E6032084F825008F
:104EE000D9F80C00FF20C9F8240000BF6469737072
:104EF0006C61790059B10A1F4FEAB202032A0FD838
:104F0000DFE802F00211141700F13F0313E090F8FC
:104F10003E20012A40F08980022280F83E2027E0CE
:104F200000F1430307E000F1400304E000F1410316
:104F300001E000F142031B78012B40F07680032A48
:104F400007D8DFE802F0020A0E12022280F83F20A2
:104F50000EE0022280F843200AE0022280F840207E
:104F600006E0022280F8412002E0022280F842207E
:104F70004FEAB102032A58D800683CA353F8222014
:104F8000C3681A43C26001F01F020121036A01FADB
:104F900002F293430362036A1343A0F18042A2F535
:104FA00096324FEAB222062A03623FD8914011F0AE
:104FB000650F3BD0416C42F6FF32C4F2010241F46E
:104FC0000041904241640FDCB0F1804F1ED040F2AE
:104FD0000041C4F20001884218D040F60001C4F23A
:104FE0000001884212D01CE042F60041C4F20101E7
:104FF00088420BD044F20001C4F20101884205D07E
:1050000043F20041C4F2010188420AD181680722BB
:10501000C0F201021140062907D0B1F5803F08BF58
:105020007047016841F001010160704742F6FF31AD
:10503000C4F201018842C7DD43F6FF71C4F20101E9
:10504000884202DC42F60041D6E744F20001C4F295
:1050500001018842DAD044F60001C4F2010188421D
:1050600002BF416C41F400414164DAE702000000F4
:1050700004000000080000001000000080B54FEAA6
:10508000B10EBEF1030F88BF80BD03680FF2BC0CE8
:105090005CF82EC0DA6801F01F0102EA0C02DA6047
:1050A0004FF0010C1A6A0CFA01F122EA01011962AF
:1050B000A3F18041A1F596311A6A4FEAB121062980
:1050C0001A6213D80CFA01F111F0650F0ED0196AAB
:1050D00041F2111211420FD1196A44F244421142B5
:1050E0000AD1596C21F40041596405E044F60001ED
:1050F000C4F201018B42EAD0196A41F21112114245
:1051000008D1196A44F24442114203D1196821F0CE
:1051100001011960BEF1030F07D8DFE80EF0020AA3
:105120000E12012180F83E1080BD012180F843104D
:1051300080BD012180F83F1080BD012180F8401022
:1051400080BD012180F8411080BD00BFFDFFFFFF41
:10515000FBFFFFFFF7FFFFFFEFFFFFFF70B546F616
:105160006463C2F200031B68846D436594F85C00BD
:1051700001280ED0012084F85C0094F85D0001281D
:1051800004D1002918BF5FEA024007D1002084F84B
:105190005C000120BDE8704001F024BF0320002323
:1051A00084F85D002366A163A287E2872364C4E9D3
:1051B0001333A4F84430A4F84630A0682268B0F550
:1051C000004F07D1106820F040001060106840F4D4
:1051D00080401060606D41F6A93E41F6AD3541F664
:1051E0005536C0F6000EC0F60005C0F60006C0E950
:1051F0000B5EC0E90D63D4F80CC05368BCF5E06FDA
:1052000023F48043536015D88369B3F5806F11D1BF
:10521000E68F5368F60705D123F480435360E38F8C
:105220005B0806E043F480435360E38F012606EBFE
:105230005303E387E38F0C32FBF71CFC38B1206E7D
:1052400040F010002066012084F85D009EE7206891
:105250000168490603D4016841F0400101604168DA
:1052600041F020014160416841F0020141608DE759
:10527000F0B58168D0F800C00246C06901EB410E6C
:105280003CF82E30016873B10C6840F200052168CB
:10529000C2F200052D688E6A0136B5FBF6F79F4213
:1052A00011D2002513E0096840F200040B68C2F235
:1052B000000424689D6A0135B4FBF5F6B6F57A7FE3
:1052C00017D200241BE05E43B5FBF6F5013DCD622D
:1052D000E560CC6A4068651C4FEAB004042C4FEAD4
:1052E00055001ED8DFE804F0031F212325003431C8
:1052F00020E04FF47A767543B4FBF5F4013CDC62B0
:10530000CC60DC6A40684FEAB001042904F1010076
:105310004BD8DFE801F0034D5053560003F1340140
:1053200051E04C3106E0383104E03C3102E04031DC
:1053300000E0483108600CEB8E00418890ED010AD6
:10534000594344F6D353C1F26203A1FB03139909F5
:10535000C2E903119169B5EE400AB0EE402A9FED13
:10536000211AF1EE10FAB8BFB0EE412A0868B7EE84
:10537000001A0068B4EE410A0368F1EE10FA93EDEA
:105380000B1AD8BFB0EE420AB8EE411A92ED0C2AC1
:1053900020EE010A22EE000ABCEEC00A496882ED46
:1053A000050ABDE8F040FFF7A5BD03F14C010AE096
:1053B00003F1380107E003F13C0104E003F140018F
:1053C00001E003F14801086091690CEB8E0043880D
:1053D000086849680068D3601361BDE8F040FFF7D2
:1053E0004DBE00BF000000002DE9F04782B00F461F
:1053F0000446100C91B2414360689846006D154612
:105400003E0C4FEA410900F0B7FD781CEA19030A87
:105410008DF80200100A8DF8030060688DF80130E5
:10542000806D8DF804202A2200688DF80520A2687E
:1054300043684FF0070A6AF30B234360A3891A20DD
:10544000936206EB154100EB1746606801F1190500
:105450000DF105010122FFF781FEA068A1890DF180
:1054600001078161606839460422FFF777FE300A40
:105470008DF80100280A8DF8030060688DF802603D
:10548000806D8DF804502B2100688DF80610A168FE
:1054900042686AF30B224260A08901228862606838
:1054A0000DF10601FFF75AFEA068A189042281616F
:1054B00060683946FFF752FE60682C21806D8DF8D8
:1054C00007100068A16842686AF30B224260A08955
:1054D0000122886260680DF10701FFF73FFEA068B6
:1054E000A18981616068816D09684A6842F47062CF
:1054F0004A6041464A46FFF731FE6068006D02F09F
:1055000017F802B0BDE8F087B0B540F2182CC2F22F
:10551000000CDCF85CE0864598BFB0BD3CF860EF5D
:1055200000EB40005CF8084C050124F805E0BCF8ED
:10553000005004EB00104580BCF800500CF1020E46
:10554000D4067446858058BF64462488C4801407F6
:10555000744658BF6446248804815407744658BF73
:105560006446248844819407744658BF644624885E
:10557000D2077246848108BF62461288C281BCF895
:1055800000200282BCF800204282BCF80020828207
:10559000CA06724658BF62461288C2820A0772461D
:1055A00058BF6246128802834A07724658BF624655
:1055B000128842838A07724658BF62461288C9071A
:1055C0007146828308BF61460988C183BCF8001018
:1055D0000184BCF800104184BCF800108184D90615
:1055E000714658BF61460988C1841907714658BF82
:1055F0006146098801855907714658BF6146098887
:1056000041859907714658BF614609888185D90748
:1056100018BFF446BCF80010C185B0BD2DE9F043B9
:105620000FB2160C002F02EB010506D48AB2A02A95
:105630002CBF4FF09F0E8E4601E04FF0000E06EBA0
:1056400011420029A5F1010C07D44FEA1149B9F123
:10565000500F28BF4FF04F0901E04FF000090FFA3B
:105660008CF4002CA2F1010206D41FFA8CF4A02CB9
:1056700028BF4FF09F0C01E04FF0000C14B2002C3B
:1056800004D494B2502C28BF4F2200E000220FFA1D
:1056900082F80FFA89F2424540DC0FFA8CF20FFAD9
:1056A0008EF79742C8BFBDE8F0831F0240F2FF7635
:1056B000B7434FF4FC6606EA53163744C3F3C443BA
:1056C0003B4405E009F101010FFA81F9C14525DCF0
:1056D0000FFA89F4754600BF04EB84062FB200EB85
:1056E000861606EB47016F1C3FB297428B80E9DCC0
:1056F00006EB4701AF1C3FB297428B80E2DC06EB22
:105700004701EF1C3FB297428B80DBDC06EB470181
:105710002F1D3DB295428B80DEDDD3E7BDE8F083DF
:105720000B0D042B1ED84FF6FF7343EA014C4FF6C6
:10573000FE73C0F2A0039C4588BF70474FF4FC6322
:1057400002F0F80C03EA521343EA0C23C2F3C442FA
:105750001A440B0C03EB830389B200EB831000EBBC
:1057600041008280704700002DE9F04F85B09DF820
:1057700038701E041C461DB222F07F433246CDE92C
:1057800003010293BB46009700F078F9012D2DDB51
:105790000026A6EB4407C4F101084FF0010900BF41
:1057A0000FFA88F009F10209B91CB0F1FF3FC844B3
:1057B000C8BF0F46B0F1FF3FC8BF884402996FEAE7
:1057C000E03205F07F4045182AF0FF00144401360E
:1057D00000EB0B0ADDE9030146EA04422B46CDF853
:1057E00000A000F04BF920B28642D9DB05B0BDE83D
:1057F000F08F00002DE9F04F85B01D46136804912D
:105800001968546809680646184600928847210CB2
:1058100002913FD0074604981FFA84F8000C0190CB
:1058200025F07F450023404607E000BF039B40462C
:105830000133029A19B28A422CDD48B318B208FB30
:1058400000F901984FF0000B18444FEA004A039307
:1058500006E000BF0BF1010B0FFA8BF08045E5DD90
:1058600009FA8BF0C108795C00F0070021FA00F01A
:10587000C007EFD0049804F07F42584480B24AEA4F
:105880000001306854190368304622469847E1E722
:105890000020CDE7009800680168496805B0BDE8C0
:1058A000F04F08472DE9F04F89B09046120C1FFACF
:1058B00088F7044612980497B7EB184F174638BF7D
:1058C0004746C7F34E078742A8BF20EAE07708EBB8
:1058D0000100FD437E1800EB050B02EB2140C51BC8
:1058E000B0B2CDE907120690206807EB214A029674
:1058F000C6EA0A41866923F07F494FF0010C204631
:105900004A463B46CDF800C0B04720681FFA8BF1ED
:1059100086690591CBEA0A414FF0020C20464A46BF
:105920003B46CDF80CA0CDF800C0B0470020CFF624
:10593000FE70216800EB05460698D1F818C03118B2
:105940004FF0040E20464A463B46CDF800E0E047C3
:1059500020684A46D0F818C005983B4631180826FA
:1059600020460096E047A8EB47000104B1F5003F50
:105970004FEA470B1DDD4FF6FE7202991044226874
:10598000C0EA0740079B4FEA054A0131976800F5D6
:1059900080358EB2C1EA030120462A464B46B847FD
:1059A0002068AAF580318768314320462A464B4655
:1059B000B8470898A0EB0B000004B0F5003FDCBF2F
:1059C00009B0BDE8F08F0399079A090401F5803109
:1059D00092B223681143049AA0F50030D3F808C0AE
:1059E000024320464B4609B0BDE8F04F6047000037
:1059F0002DE9F04F85B09DF838701E041C461DB28D
:105A000022F07F433246CDE903010293BB46009763
:105A100000F0B2F8012D2DDB0026A6EB4407C4F1FF
:105A200001084FF0010900BF0FFA88F009F10209DF
:105A3000B91CB0F1FF3FC844C8BF0F46B0F1FF3FEB
:105A4000C8BF884402996FEAE03205F07F404518EC
:105A50002AF0FF001444013600EB0B0ADDE90301D4
:105A600046EA04422B46CDF800A000F085F820B2AB
:105A70008642D9DB05B0BDE8F08F00002DE9F04F7C
:105A800081B00A9F984615460E4604464FEA1149D2
:105A9000B8074FEA124A16D522687019A9EB0A0115
:105AA000136828F07F4BC0EA014120465A469847C8
:105AB000216806EB0A00A9EB05020B68C0EA024167
:105AC00020465A469847F8075FFA87FB16D02268A7
:105AD000701BA9EB0A01136828F07F47C0EA014157
